:02000002B0004C
:1040000000400B003EFD0B00000006000C00050206
:084010000401B41400000000DB
:04401800E4E00B00D5
:1040200081F0004102E000BF83F0004330B54FEA69
:1040300041044FEA430594EA050F08BF90EA020FD6
:104040001FBF54EA000C55EA020C7FEA645C7FEA69
:10405000655C00F0E2804FEA5454D4EB5555B8BF8C
:104060006D420CDD2C4480EA020281EA030382EAFD
:10407000000083EA010180EA020281EA0303362D8F
:1040800088BF30BD11F0004F4FEA01314FF4801C62
:104090004CEA113102D0404261EB410113F0004F74
:1040A0004FEA03334CEA133302D0524263EB43032B
:1040B00094EA050F00F0A780A4F10104D5F1200EC9
:1040C0000DDB02FA0EFC22FA05F2801841F1000124
:1040D00003FA0EF2801843FA05F359410EE0A5F1F8
:1040E00020050EF1200E012A03FA0EFC28BF4CF029
:1040F000020C43FA05F3C01851EBE37101F00045DF
:1041000007D54FF0000EDCF1000C7EEB00006EEBEB
:104110000101B1F5801F1BD3B1F5001F0CD3490875
:104120005FEA30004FEA3C0C04F101044FEA4452CC
:1041300012F5800F80F09A80BCF1004F08BF5FEA53
:10414000500C50F1000041EB045141EA050130BD33
:104150005FEA4C0C404141EB0101013C28BFB1F545
:10416000801FE9D291F0000F04BF01460020B1FA90
:1041700081F308BF2033A3F10B03B3F120020CDA63
:104180000C3208DD02F1140CC2F10C0201FA0CF041
:1041900021FA02F10CE002F11402D8BFC2F1200CA6
:1041A00001FA02F120FA0CFCDCBF41EA0C0190405C
:1041B000E41AA2BF01EB0451294330BD6FEA0404A5
:1041C0001F3C1CDA0C340EDC04F11404C4F1200290
:1041D00020FA04F001FA02F340EA030021FA04F3A2
:1041E00045EA030130BDC4F10C04C4F1200220FAF9
:1041F00002F001FA04F340EA0300294630BD21FA37
:1042000004F0294630BD94F0000F83F4801306BFFC
:1042100081F480110134013D4EE77FEA645C18BFF0
:104220007FEA655C29D094EA050F08BF90EA020F87
:1042300005D054EA000C04BF1946104630BD91EA7F
:10424000030F1EBF0021002030BD5FEA545C05D182
:104250004000494128BF41F0004130BD14F58004C1
:104260003CBF01F5801130BD01F0004545F0FE4135
:1042700041F470014FF0000030BD7FEA645C1ABF6A
:10428000194610467FEA655C1CBF0B46024650EAA1
:10429000013406BF52EA033591EA030F41F40021CD
:1042A00030BD00BF90F0000F04BF0021704730B553
:1042B0004FF4806404F132044FF000054FF0000128
:1042C00050E700BF90F0000F04BF0021704730B5E9
:1042D0004FF4806404F1320410F0004548BF4042BE
:1042E0004FF000013EE700BF42004FEAE2014FEA13
:1042F00031014FEA02701FBF12F07F4393F07F4FEE
:1043000081F06051704732F07F4208BF704793F0F0
:104310007F4F04BF41F40021704730B54FF4607403
:1043200001F0004521F000411CE700BF50EA010206
:1043300008BF704730B54FF000050AE050EA0102AF
:1043400008BF704730B511F0004502D5404261EB1F
:1043500041014FF4806404F132045FEA915C3FF460
:10436000D8AE4FF003025FEADC0C18BF03325FEAFD
:10437000DC0C18BF033202EBDC02C2F1200300FAAE
:1043800003FC20FA02F001FA03FE40EA0E0021FAD3
:1043900002F11444BDE600BF70B54FF0FF0C4CF4C1
:1043A000E06C1CEA11541DBF1CEA135594EA0C0F73
:1043B00095EA0C0F00F0DEF82C4481EA030621EAAE
:1043C0004C5123EA4C5350EA013518BF52EA0335E9
:1043D00041F4801143F4801338D0A0FB02CE4FF09B
:1043E0000005E1FB02E506F00042E0FB03E54FF0CB
:1043F0000006E1FB03569CF0000F18BF4EF0010EC3
:10440000A4F1FF04B6F5007F64F5407404D25FEABE
:104410004E0E6D4146EB060642EAC62141EA555171
:104420004FEAC52040EA5E504FEACE2EB4F1FD0CB3
:1044300088BFBCF5E06F1ED8BEF1004F08BF5FEA31
:10444000500E50F1000041EB045170BD06F00046E3
:1044500046EA010140EA020081EA0301B4EB5C0490
:10446000C2BFD4EB0C0541EA045170BD41F4801188
:104470004FF0000E013C00F3AB8014F1360FDEBFAD
:10448000002001F0004170BDC4F10004203C35DA89
:104490000C341BDC04F11404C4F1200500FA05F30C
:1044A00020FA04F001FA05F240EA020001F00042AD
:1044B00021F0004110EBD37021FA04F642EB060123
:1044C0005EEA430E08BF20EAD37070BDC4F10C044D
:1044D000C4F1200500FA04F320FA05F001FA04F211
:1044E00040EA020001F0004110EBD37041F10001FD
:1044F0005EEA430E08BF20EAD37070BDC4F1200508
:1045000000FA05F24EEA020E20FA04F301FA05F26F
:1045100043EA020321FA04F001F0004121FA04F217
:1045200020EA020000EBD3705EEA430E08BF20EAE7
:10453000D37070BD94F0000F0FD101F00046400021
:1045400041EB010111F4801F08BF013CF7D041EAA3
:10455000060195F0000F18BF704703F000465200A7
:1045600043EB030313F4801F08BF013DF7D043EA78
:104570000603704794EA0C0F0CEA135518BF95EA2E
:104580000C0F0CD050EA410618BF52EA4306D1D1B5
:1045900081EA030101F000414FF0000070BD50EAD4
:1045A000410606BF1046194652EA430619D094EA5E
:1045B0000C0F02D150EA013613D195EA0C0F05D148
:1045C00052EA03361CBF104619460AD181EA03019C
:1045D00001F0004141F0FE4141F470014FF0000054
:1045E00070BD41F0FE4141F4780170BD70B54FF0EF
:1045F000FF0C4CF4E06C1CEA11541DBF1CEA13556F
:1046000094EA0C0F95EA0C0F00F0A7F8A4EB050450
:1046100081EA030E52EA03354FEA013100F0888047
:104620004FEA03334FF0805545EA131343EA126310
:104630004FEA022245EA111545EA10654FEA0026C5
:104640000EF000419D4208BF964244F1FD0404F57E
:10465000407402D25B084FEA3202B61A65EB0305DA
:104660005B084FEA32024FF480104FF4002CB6EB97
:10467000020E75EB030E22BFB61A754640EA0C0017
:104680005B084FEA3202B6EB020E75EB030E22BF57
:10469000B61A754640EA5C005B084FEA3202B6EB98
:1046A000020E75EB030E22BFB61A754640EA9C0057
:1046B0005B084FEA3202B6EB020E75EB030E22BF27
:1046C000B61A754640EADC0055EA060E18D04FEAE5
:1046D000051545EA16754FEA06164FEAC30343EA85
:1046E00052734FEAC2025FEA1C1CC0D111F4801F52
:1046F0000BD141EA00014FF000004FF0004CB6E74B
:1047000011F4801F04BF01430020B4F1FD0C88BFE9
:10471000BCF5E06F3FF6AFAEB5EB030C04BFB6EBF4
:10472000020C5FEA500C50F1000041EB045170BDE7
:104730000EF0004E4EEA113114EB5C04C2BFD4EB14
:104740000C0541EA045170BD41F480114FF0000E98
:10475000013C90E645EA060E8DE60CEA135594EA14
:104760000C0F08BF95EA0C0F3FF43BAF94EA0C0F17
:104770000AD150EA01347FF434AF95EA0C0F7FF48C
:1047800025AF104619462CE795EA0C0F06D152EAE0
:1047900003353FF4FDAE1046194622E750EA4106C4
:1047A00018BF52EA43067FF4C5AE50EA41047FF4D5
:1047B0000DAF52EA43057FF4EBAE12E74FF0FF3C3A
:1047C00006E000BF4FF0010C02E000BF4FF0010C0B
:1047D0004DF804CD4FEA410C7FEA6C5C4FEA430C84
:1047E00018BF7FEA6C5C1BD001B050EA410C0CBFD3
:1047F00052EA430C91EA030F02BF90EA020F002035
:10480000704710F1000F91EA030F58BF994208BF9B
:1048100090422CBFD8176FEAE37040F00100704758
:104820004FEA410C7FEA6C5C02D150EA013C07D1AF
:104830004FEA430C7FEA6C5CD6D152EA033CD3D0FA
:104840005DF8040B704700BF8446104662468C46F4
:104850001946634600E000BF01B5FFF7B7FF002827
:1048600048BF10F1000F01BD4DF808EDFFF7F4FF50
:104870000CBF012000205DF808FB00BF4DF808EDDB
:10488000FFF7EAFF34BF012000205DF808FB00BFFE
:104890004DF808EDFFF7E0FF94BF012000205DF820
:1048A00008FB00BF4DF808EDFFF7CEFF94BF0120D5
:1048B00000205DF808FB00BF4DF808EDFFF7C4FFCE
:1048C00034BF012000205DF808FB00BF4A0011D270
:1048D00012F5001211D20DD56FF47873B3EB62525A
:1048E0000ED44FEAC12343F0004343EA505323FA66
:1048F00002F070474FF00000704750EA013002D1DB
:104900004FF0FF3070474FF0000070474FEA410210
:10491000B2F1E04324BFB3F5001CDCF1FE5C0DD91D
:1049200001F0004C4FEAC0024CEA5070B2F1004F67
:1049300040EB830008BF20F00100704711F0804F6A
:1049400021D113F13872BCBF01F00040704741F42F
:1049500080114FEA5252C2F11802C2F1200C10FA33
:104960000CF320FA02F018BF40F001004FEAC12317
:104970004FEAD32303FA0CFC40EA0C0023FA02F3BB
:104980004FEA4303CCE77FEA625307D150EA013391
:104990001EBF4FF0FE4040F44000704701F0004061
:1049A00040F0FE4040F40000704700BFD0B50C4B13
:1049B000002206460F46FFF7EFFCFFF787FF04468D
:1049C000FFF770FC074B0022FFF7E6FC02460B46A0
:1049D00030463946FFF728FBFFF778FF2146D0BD68
:1049E0000000F03D0000F04110F8012B11F8013BF0
:1049F000012A28BF9A42F7D0D01A7047034613F80D
:104A0000012B002AFBD1181A0138704738B5002253
:104A1000002304460D46FFF731FF28B920462946FA
:104A2000BDE83840FFF7C2BF204605F10041FFF75F
:104A3000BDFF404261EB410138BD00BF09480A4952
:104A4000884208B505D0094A824202D0121A07F0FE
:104A5000E7FA0748074A0021121A07F009FB014844
:104A600008BD00BFECE203202CFB0B00D0E40320C8
:104A7000D0E40320F0E7032070B5074E074C06F0A2
:104A8000B9F8A41BA4080025AC4200D170BD56F8AB
:104A9000043B98470135F7E7E4FA0B0008FB0B00ED
:104AA00000F008BF08B500F051FEBDE8084006F070
:104AB00059B803F011B903F00FB903F015B903F0B9
:104AC00013B9000008B5034A03490C2003F038F875
:104AD000FEE700BF35770B00F8E00B000078B0FA76
:104AE00080F040097047012303707047704770B52C
:104AF00005460C46164642B90368C9B29B689847FA
:104B00002846BDE8704004F098BF00290ADA0A2A56
:104B100008D12D2104F08EFF6142F2B2284604F044
:104B2000A2FFEDE72146F8E7B0B502F1080388B02F
:104B300023F0070300AFADEB030D144605466846AE
:104B400007F06EFA0023694638460DF8043003F08A
:104B5000ACFA384603F072FBFDEEC07A294617EE38
:104B6000904A07F1100003F0A0FA06F065F9124927
:104B700004F05CFF06F060F921460A22FFF7B7FF58
:104B80000E4907F1100003F037FB58B10C4B1C60C5
:104B900007F1100003F03EFA384603F03BFA2037E5
:104BA000BD46B0BD074907F1100003F025FB002802
:104BB000EED0054BEBE700BF0DE10B00D0E4032086
:104BC000F4E40320E0E40320F8E4032008B502F055
:104BD000B9FD034B1860BDE8084003F065B800BF9D
:104BE00040E703200A4B10B50446036005F03AF98C
:104BF000214605F072FB06F01FF906F011F9204678
:104C0000044B40F8043B05F003FA204610BD00BFFA
:104C100040E20B0028E20B0010B50446FFF7E2FF6C
:104C200020462421FFF74BFF204610BD0EB400B5EF
:104C30008CB00DAA4FF0200C52F8041B0392CDE962
:104C400000120023016804AA1E20CDE904C302F06B
:104C500087FF0CB05DF804EB03B070472DE9F0411D
:104C60008EB0044609A803F0D9FB09A9012204F17A
:104C7000080004F069FC94F92020079200212046E6
:104C800003F096FB01210690204603F091FB0221E0
:104C90000546204603F08CFB03210646204603F020
:104CA00087FB04210746204603F082FB052180464E
:104CB000204603F07DFBDDE90632CDE90380CDE936
:104CC00001670A490A480095FFF7B0FF21460948E5
:104CD00003F073FB084B94F920201A6003F05CFD8D
:104CE00003F0BDFD0EB0BDE8F08100BF1AE10B007E
:104CF000B8E603204CE6032054E6032003682BB1FA
:104D00004268934202D2184607F069B90020704702
:104D100038B50568044645B143689D4205D228462A
:104D2000FFF76CFE013005442560204638BDF8B51C
:104D3000044647680D4621B903687A1C4260D9557C
:104D4000F8BD0846FFF75AFEA368461CF2199A42BE
:104D5000F6D8206832462946384407F061F9606881
:104D600030446060ECE7000038B504460B46D0E9FB
:104D700001012568044A091A284402F0C5FF636846
:104D800001300344636038BD47E10B0038B5044689
:104D90000B46D0E901012568044A091A284402F0AB
:104DA000B3FF636801300344636038BD4AE10B0020
:104DB00010B5074C204602F031F90121204601F0E0
:104DC00096FA00224FF00113C4E9042310BD00BF7E
:104DD000B8E5032070B5D0E900531426044606FB5D
:104DE0000356AE4204D0284603F014F91435F8E710
:104DF000206802F079FF204670BD08B50023437794
:104E0000006806F06BFBBDE8084002F01EBC88425B
:104E1000F8B504460D46164616D9904215D2A2F1B1
:104E20001406751AA1F114072C44B7421CD02CB1FA
:104E30003146204603F06AF9337C2374304603F090
:104E4000E9F8143E143CF0E70ED0B5420CD02CB17A
:104E50002946204603F05AF92B7C2374284603F098
:104E6000D9F814351434F0E7F8BD2DE9F0410023EA
:104E7000C0E9003383604F689F4204460E4623DD3D
:104E80004FF0140808FB07F002F026FF0546D8B1E2
:104E9000D4E9001208FB0212FFF7B9FF206802F004
:104EA00023FF2560A760D6E9007308FB0378B845A7
:104EB00008D03946284603F043F93B7C2B7414375D
:104EC0001435F4E7736863602046BDE8F0810000A4
:104ED0002DE9F0438F188FB0B942CDE9051706468A
:104EE0008946904680F0C28005A80D88FFF710FF24
:104EF0000368BB4280F0BA8005980378412B49D102
:104F0000013007F06CF8052837DDFF2447F27623DF
:104F10009D4200F0D38041D847F261239D4200F0CA
:104F2000A88047F264239D426BD046F670539D42A1
:104F300041D1784D784EDFF8F4810598B84280F081
:104F400095800378412B4BD1013007F048F80528B4
:104F500039DDFF2405A8FFF7DBFEDDF814902946B4
:104F60004846FFF741FD014600283DD1204606F0A6
:104F700019FE05A8FFF7CCFEDFE70598013007F022
:104F80002EF80028C1DB0598013007F028F80E3014
:104F9000C4B2BBE705A8FFF7B1FEF9E747F26473B7
:104FA0009D424FD047F276739D4200F0978047F2C2
:104FB00061739D426FD00023CDE90133022200923C
:104FC000728B19463AE00598013007F008F800287E
:104FD000BFDB0598013007F002F80E30C4B2B9E724
:104FE00005A8FFF78BFEF9E731464846FFF7FCFCC2
:104FF00028B141464846FFF7F7FC0028B9D1012106
:10500000B4E70AAB4549079307A810230025CDE96B
:105010000853FFF78CFE07A82146FFF7A5FE2046A0
:1050200006F0EAFD014607A8FFF7B0FE089BCDE9B0
:105030000155013B0093079B2A461421304600F09E
:1050400085FA13E005A8FFF763FE03689F420DD9B8
:10505000A4B20121204606F0A5FD05A8FFF74EFEEB
:10506000011E18BF0121204606F0ADFD0FB0BDE8BE
:10507000F0830AAB079307A8102329490025CDE93F
:105080000853FFF754FE07A82146FFF76DFE2046A0
:1050900006F0C5FDC6E705A8FFF73AFE03689F4284
:1050A000E4D9A4B20121204606F07CFD05A8FFF753
:1050B00025FE0146204606F0C9FDD7E720468DF8BB
:1050C000284002F0C3FA03460AA823B1154A9342C6
:1050D00001D09847CAE702F0B6FAC7E705A8FFF77C
:1050E00017FE059B8DF81C40A3EB0901A8EB0101FD
:1050F0002046CDE90A310C9102F0B2FA03460AA922
:1051000007A823B1084A934201D09847AEE702F0BE
:105110009BFAABE74EE10B0051E10B0059E10B00AC
:105120005CE10B0047760B0049760B0055E10B0064
:105130002DE9F0418CB004AF044605220068391D0A
:1051400004F0F5FCA8B3052804D000202037BD46A4
:10515000BDE8F081B7F8050002F08AFBA7F805006A
:10516000B7F8070002F084FBB7F80530A7F807008E
:105170008046002BE9D03B7923BB02F062FA02465D
:10518000E060607FB7F80730C0B9B7F805100129B3
:1051900014D1092B0FD0C82B01D0042BD6D1012557
:1051A00062612046657700F081FAFFF70FFD02F09B
:1051B0004CFA0120CAE703236377C7E7581F18BFDB
:1051C0000120C3E7B0F5806F03D92046FFF715FE35
:1051D000EFE700F1080323F007036E46ADEB030D84
:1051E00004AD02462946206804F0A1FC80454FF03A
:1051F00000007FD1B7F80730E85402F022FA3B797B
:10520000E060142B00F0A68048D80F2B00F0A2809D
:1052100007D8022B48D0062B51D02046FFF7EDFDD2
:1052200058E0112BF9D100233B70B7F807302B441D
:105230009D42C7E903534DD207F10C00D5F8008019
:10524000FFF766FDFB68B7F807105D1B4D1BC7E94C
:1052500005357B68FD61C3F30F236383644B984579
:1052600000F0BF8000F28C80A3F57F236FF4007202
:105270001344984500F09D8079D8A3F50033063B90
:10528000984500F09C8003F50033033398456BD1BB
:1052900007F11401384602F0D7F965E0292B1BD03D
:1052A000372B17D01D2BB8D1637F43B90123637708
:1052B000204600F0FBF9FFF789FC02F0C6F9002355
:1052C000C821B7F805200091CDE9013319462046E1
:1052D00000F03CF901200DE0A3681BB9402002F06A
:1052E000FBFCA060B7F80780A8444545C7E905580E
:1052F00002D30020B54629E729464022A06806F0DF
:1053000020FFA368002583F83F5007F11400FFF742
:10531000FFFC036898451BD9786920B1BB699842A6
:1053200014D206F060FE85B2206806F0D7F8236834
:10533000A2685A631D870023637702F082F9A0F503
:105340009C500838C4E903006061C3E72846EAE7D7
:105350005025E9E77B68B7F80720C3F30F23638381
:1053600029462046FFF7B4FD00236383B2E7214BB3
:105370009845F9D107F11401384602F065F9F3E7D1
:105380001D4B984521D003F19F6303F5003303F5CE
:10539000807398451FD003F16E4303F5302303F566
:1053A00086739845E0D107F11401384602F04CF9B4
:1053B000DAE707F11401384602F046F9D4E707F1BD
:1053C0001401384602F040F9CEE707F114013846DF
:1053D00002F03AF9C8E707F11401384602F034F94F
:1053E000C2E707F11401384602F02EF9BCE700BF0E
:1053F000766673006462670061636F6E2DE9F04149
:1054000004468CB00D46FFF7E1FB637F022B1ED0F4
:10541000237F628B0133DBB22377AAB9022B13D827
:10542000206805F023FFA8B125B9206805F0FCFF2E
:1054300000280FDD2046FFF77BFE0028F5D120680D
:1054400006F04CF802F001F9237F013B23770CB002
:10545000BDE8F08102F0F5F80546206805F006FF8A
:10546000677F012F064624D120B965612046FFF7EA
:10547000C4FCE9E7E3684FF21862EB1A9342F5D8EF
:105480004AF6C872934203D82369EB1A9342DBD9D8
:10549000636941F27072EB1A9342D5D90023CDE9CA
:1054A000013300931A460621204600F04FF865614B
:1054B000CAE7002FC8D16369EB1A40B141F270729C
:1054C0009342C1D9206806F009F86777BCE741F23A
:1054D00088329342B8D9206806F000F8D4F800C0AA
:1054E000DCF834E0BCF83880BEF1000F1BD0334646
:1054F00042467146604605F03BFE0128D7D16368FD
:105500000593012518462583FFF778FA0022CDE997
:105510000122059B00902A461D21204600F016F826
:105520002369636190E7084B06930CF120070FCFC6
:1055300007AE0FC63B6833704246734606A9604605
:1055400005F0F6FED9E700BF3CF40B002DE9F04F63
:1055500083B000AF044600683D6B88461646994606
:10556000EB4605F083FE002800F08180B8F11D0FA6
:1055700004D84D4B23FA08F3DB0702D4637F012BD9
:1055800075D146B9668B36B9238B01339BB2002B9C
:1055900072D02383268BA8F10C03082B16D8D4E9EC
:1055A0000323934238BF134603F1420A02F049F83D
:1055B000AAEB0000002861DB00212046FFF71EFF58
:1055C00002F03FF8AAEB00000028F5DAB9F1000F6D
:1055D0005BD06B1D7A6B002ABA6B08BF002203EB0D
:1055E000020A0AF1070323F00703ADEB030D30466F
:1055F0008DF80080C7F804D002F042F9BB6BADF81B
:105600000100E81880B202F03BF9ADF80300B9F1EF
:10561000000F3CD0002D3AD02A4649460DF1050036
:1056200006F0FEFC681D7B6B3BB1BB6B2BB11A46D1
:105630007B68796B184406F0F3FC002555452AD2A7
:10564000AAEB05027B682068B2F5806F28BF4FF493
:105650008062591905F0E1FC0646002001F0EFFFD9
:10566000BEB9206805F03AFF667701F0EEFF0C370F
:10567000DD46BD46BDE8F08F01238AE7217F002982
:10568000A4D12046FFF7BAFEA0E70523A2E7052034
:10569000C9E73544D2E703D02046FFF7AEFBE6E783
:1056A00001F0CFFF2061E2E74500002030B599B05E
:1056B00008AB044605930025402305A80B49CDE916
:1056C0000653FFF734FB05A80949FFF730FB069B9B
:1056D0000293059B0193652300932A46054B1121F4
:1056E0002046FFF733FF19B030BD00BF5FE10B006C
:1056F00064E10B0058E20B00F0B5ADF2244D08ABAD
:10570000002405460F46059305A84FF480630E4913
:105710001646CDE90643FFF70AFB394605A8FFF711
:1057200023FB314605A8FFF71FFB069B013B0093B7
:10573000CDE90144059B224614212846FFF706FFC8
:105740000DF2244DF0BD00BF72E10B002DE9FF41C9
:105750004848494C00F043FE48480021FFF74EFE00
:10576000FFF726FB4649434804F060F92168002909
:105770005BD144493F4804F06CF9434F43493D48ED
:1057800004F054F93968002954D13E49394804F0ED
:1057900060F93F4E3F49374804F048F93168002925
:1057A0004DD13849334804F054F93B4D31484FF05E
:1057B000000801F0A1FEC5F8008002F0EDFF3749B6
:1057C000424603F09FFF2B68B3B13548236000F0D9
:1057D00091FF88B12968334D0A22684602F0D5FC52
:1057E0006946284602F0B7FC684602F013FC2A68B6
:1057F0002D492B4801F0F9F8294800F07BFF18B338
:10580000274801F04EF922681C480021FFF774FF79
:105810003A681A480121FFF76FFF326817480221E2
:10582000FFF76AFF04B0BDE8F08112480A22FFF7D3
:105830005EF9A2E70F480A22FFF759F9A9E70D48D8
:105840000A22FFF754F9B0E7684602F035FA0099EA
:10585000134801F03FF8684602F0DCFB134B104898
:10586000196801F066FA124B0D48196801F061FAE7
:10587000C9E700BFB8E50320F0E40320FCE40320FF
:1058800075E10B007BE10B00F4E4032083E10B00E6
:10589000F8E4032089E10B0054E603205D4C0B0083
:1058A00058E503206CE603208FE10B00D0E40320D1
:1058B000E0E40320F0B585B005F0BEFA4FF41651D0
:1058C00005F0AAFA2748284C00F060FD02F064FFBA
:1058D00002F07EFF02F060FF142102F080FF6846B4
:1058E00002F0EAF90099214800F0F4FF684602F05E
:1058F00091FB1F4B1D48196801F01BFA1D4B1B48FB
:10590000196801F016FA40F6B83001F098FE1A4B0B
:10591000636001F096FEA0F59C502368174A5A6315
:105920000838C4E90300502260611A87002644F257
:105930004F67206805F0D2FD667701F082FE0546CC
:10594000637F012B0CD001F07CFE401BB84204D8D1
:1059500000212046FFF752FDF2E7637F012BE8D1DB
:1059600005B0F0BDB8E50320FCE4032058E50320B2
:10597000D0E40320E0E403209FE10B00C0E10B0032
:1059800070B5394D8EB0284605F0F2FD05F11C00CA
:1059900005F09CF9354B0024C3E90054C3E90244E7
:1059A000C3E904446C632C879C619C8321460120DD
:1059B00002F0FEF840F25B722D4B00942D492E4808
:1059C00000F0BCFD2D492E4802F06FFB2D492E48FA
:1059D00002F06BFB07212D4800F0AAFCCDE9024440
:1059E000049405F029FA2A4C054602A905A8FFF7F8
:1059F0003CFA264605A908A8FFF737FA254B46F8D2
:105A0000043B08A90BA8FFF730FA0BAA1E21304669
:105A100004F046FD0BA8FFF7DDF908A8FFF7DAF957
:105A20001D4B2360256205A8FFF7D4F91B4B2360AB
:105A300005F002FA4FF4165105F0EEF904F012FAEF
:105A4000214604F003FC02A8FFF7C4F914491548E5
:105A500002F09CFD144802F0D6FC144914480EB024
:105A6000BDE8704002F021BB1CE50320FCE40320EC
:105A7000294B0B00CCE10B0058E50320DBE10B00C8
:105A8000D0E40320EBE10B00E0E40320B8E50320C1
:105A900028E6032028E20B00C0F30B0040E20B00D5
:105AA000FBE10B0058E603204CE603208BF30B00D0
:105AB0006CE60320704710B510210446FEF7FFFF87
:105AC000204610BD0EB403B503AB002153F8042BE0
:105AD000019303F0E6FF02B05DF804EB03B07047FA
:105AE00073B5044608462279A36832B1A3B90B49BD
:105AF00002B0BDE8704003F099BF094A267B094D0A
:105B00000949647B012E18BF2946CDE900140749D5
:105B1000FFF7D8FF02B070BD054AEFE7D0E20B00F7
:105B20008BF30B00CCE20B00C8E20B00E6E20B00AB
:105B3000BFE20B002DE9F04F85B01F46BDF938805C
:105B4000BDF83C30A8EB0209A7EB010AB9F1000F40
:105B5000B8BFC9F10009BAF1000FB8BFCAF1000A15
:105B6000D14583460C46154604DD3A462C46474649
:105B70000D469046BC4205DD2A46454690462246E3
:105B80003C4617463E1BB2B20092A8EB050282EAE1
:105B9000E271A1EBE271C6F3C03202FA86F6454526
:105BA000B4BF01224FF0FF32019176100292BC4245
:105BB0001CDCDBF800200393D145D2F81880C7BF66
:105BC000294622462A4621465846C047019A039B49
:105BD000B61AB1B236B2002E05DA029A1544009A0E
:105BE00056182DB236B2013424B2E0E705B0BDE854
:105BF000F08F704710B404682469A4465DF8044B24
:105C0000604730B40468BDF808500295A46BA44600
:105C100030BC604730B40468BDF808500295E46BAE
:105C2000A44630BC604770B4BDF90C50BDF810609C
:105C30000468CDE90356246CA44670BC60472DE986
:105C4000F3411C460368BDF820805B690546164693
:105C5000013C34440F4624B298472B68CDF80480A9
:105C600000949C6A28463B4632463946A0472B683A
:105C7000DB6A284602B0BDE8F04118472DE9F34140
:105C80001D460368BDF820805B69044617460E4632
:105C90009847CDE9007822686B1E3344956A204608
:105CA0001BB23A463146A8472368DB6A204602B059
:105CB000BDE8F04118472DE9F3471E460368BDF9DA
:105CC00028905B69BDF82C800C460546174698471E
:105CD0002644B4422B680BDACDF80080D3F820A01C
:105CE00021464B463A4628460134D04724B2F0E7D5
:105CF000DB6A284602B0BDE8F047184713B50268D2
:105D00000191B0F90E100091146CB0F90C30002222
:105D10001146A04702B010BD2DE9F743994216463F
:105D2000BDF92870BDF82C90026880460D461C46CF
:105D300013D1BE42C8BF3346CDF82890C4BF3E46FB
:105D40001F467B1C946B9B1B1BB232462946404668
:105D5000A44603B0BDE8F0436047BE420AD1994271
:105D6000C2BF0B4625461C46631CCDF82890D46B59
:105D70005B1BE9E753699847CDE90079D8F8003013
:105D800040469F6A324623462946B847D8F8003035
:105D9000DB6A404603B0BDE8F04318472DE9F347FE
:105DA0001D460368BDF82C805B69BDF92890044648
:105DB0000F46164698472368CDF80080D3F824A0F4
:105DC00032462B4639462046D0472368CDF800801E
:105DD00009F1FF323244D3F824A039462B4620463D
:105DE00012B2D0472368CDF80080D3F820A0324605
:105DF0004B4639462046D0476B1ED9192368CDF84B
:105E000000801D6A20464B46324609B2A8472368E7
:105E1000DB6A204602B0BDE8F0471847704701F042
:105E20000303B0F90A208376C907B0F9083059BFD7
:105E30008381C2818281C3817047000030B5428175
:105E4000C281074A074D0181002481814FF0FF3153
:105E5000C0E905124460056004610477046230BD46
:105E6000010100010CE80B002DE9F04F89B0CDE9EC
:105E700002120268BDF948800493BDF94C305269A2
:105E80000593BDF850A00446904718F107024FF063
:105E9000000648BF08F10E024FEAE20B01963546B4
:105EA000039B019ABDF904109A18059B8B4212B20C
:105EB00027DD049B33444FF0000906930FFA89F065
:105EC00080451FFA89F117DD4F0705BF069BC010FB
:105ED0006D001D5C18BFEDB22B060AD5029B206831
:105EE00007921944836909B21F4620465346B847B2
:105EF000079A09F10109E1E7019B013301935E442F
:105F0000CEE72368DB6A204609B0BDE8F04F1847AA
:105F10002DE9F04F2DED028B91B01646026ABDF8C7
:105F200074809DF878509DF87C4003911F46BDF821
:105F3000703004938346002A40F0C580B0F90C30DD
:105F40008B4240F34C81B0F90E30B34240F34781AD
:105F5000062313FB0513002B40F3418106EBC4031A
:105F6000002B40F33C81037F1BB9AF2F84BF013767
:105F7000FFB2DBF8003058465B699847052209926A
:105F800000220592984A07EB8703D3180C93B3B20B
:105F90000693059A0C9B9B5C0793ABB20B93BDF8E1
:105FA0000C300893039B02FB05F919FA83F90FFAE9
:105FB00089F308EE103A08230A93039B02EB030AC5
:105FC0004FF000090FFA8AFA079ADBF80030D2077F
:105FD00052D5012D1FFA89F23ED1012C3CD19B698B
:105FE00006991F46049B0A4412B251465846B847C8
:105FF00009F101034FFA83F9079B5B0807930A9B9A
:10600000013B13F0FF030A93DED1059F01377BB2FA
:106010000593099B013B13F0FF030993B9D1049B3E
:1060200043450FD0012DDBF800303BD1012C39D195
:106030000899CDF8008005311C6A3246082309B260
:106040005846A047DBF80030DB6A584611B0BDEC7B
:10605000028BBDE8F04F1847069914FB02F20A4480
:10606000049901910094DB6918EE101A1F4612B2D0
:106070002B465846B847BBE7049A4245B8D0012D95
:106080001FFA89F207D1012C05D19B6906991F4699
:106090000A444346A8E70699CDF8048014FB02F2AF
:1060A0000A44DFE70B9ACDF8048002EB8201089ADC
:1060B000E4000A4411460094DC6932462B4609B2DA
:1060C0005846A047BEE7137A516812680B92FF1A30
:1060D000FFB201EBC70331F8372006929A78099294
:1060E000DA780C92012D93F9052093F906A00A9213
:1060F00001D8012C57D9BDF9283008930FFA8AF33B
:106100000793DBF8003058465B699847B3B24FF00D
:1061100000080E931AFA86F3C14647460F930C9B6C
:106120009F428FD2079B0E9A3B4403FB042300221D
:1061300005920F9A1BB202EB070A08EE103A0FFA0B
:106140008AFA4346099A0599914241D25A1CD2B221
:106150005B070D9207D1069B06990B9A01339BB200
:1061600012F80190069319F0800F12D0012DDBF880
:106170000030BDF80C101AD1012C18D10A9A9B6975
:106180001144059A11441E465246049B09B25846D2
:10619000B047059E0136F3B24FEA490905935FFA0D
:1061A00089F90D9BCEE70023CDE90733A9E70598D0
:1061B000089A024402FB0511049ACDE90042DB690A
:1061C00018EE102A1E4609B22B465846B047E0E7A3
:1061D000099B013798445FFA88F8FFB29FE711B036
:1061E000BDEC028BBDE8F08F03E30B00F0B5026A53
:1061F00085B004460B46002A34D10A2908D1438AC7
:106200000282427E03EBC2036382012005B0F0BD2F
:106210000D29FAD0E17E007E657E71B1B4F910607F
:10622000062111FB0061B4F90C60B142C1BFB4F9A1
:106230001210228201EBC5026282E28A0192A28AD6
:106240000092CDE90205B4F91220B4F910102046ED
:10625000FFF75EFE237E228A03EB430302EB430338
:106260002382D2E70A2907D100230382417E927A52
:10627000438A01FB0233C7E70D29C6D0157AA9422C
:10628000C3D3517A9942C0D351685D1BEDB201EB83
:10629000C505A87828B3E97819B3E17E267E677E24
:1062A00091B195F905100844B4F9101006FB0011DE
:1062B000B4F90C00814207DD00202082B4F91210ED
:1062C000927A02FB07126282E28A0192A28A00920B
:1062D000CDE90267B4F91220B4F910102046FFF797
:1062E00017FE2979227E238A01FB0233B8E70129B0
:1062F00038BF0121017641767047000010B5064B8A
:1063000003600446006D08B101F06AFA204600F00F
:1063100013FD204610BD00BF64E80B0010B5044615
:10632000FFF7ECFF20467021FEF7C9FB204610BDA9
:1063300030B585B004460D4605F00AFD104A1149F6
:10634000CDE901214FF0FF32802103460092204623
:10635000202200F069FD0C4B23600023C4E91435B2
:1063600004F1580000F054F804F1600000F050F817
:1063700004F1680000F04CF8204605B030BD00BFC5
:10638000801A0600A086010064E80B0013B50446DD
:10639000503001F01DFA636DD90705D502220421A2
:1063A00004F1580000F048F8636D9A0705D5002203
:1063B000032104F1600000F03FF8636D5B0705D531
:1063C0000222114604F1680000F036F80123009320
:1063D0003C220221204600F02FFE02B010BD10B575
:1063E000436DD907044602D5583000F032F8636D8A
:1063F0009A0703D504F1600000F02BF8636D5B078A
:1064000005D504F16800BDE8104000F022B810BDC9
:1064100000210A22C0E900127047002310B504468B
:10642000C171837188B205F0E7FB08B10323A37142
:1064300001F088F9206010BD38B50C4605461146BC
:10644000A0B205F0AFFB21462846BDE83840FFF773
:10645000E4BF38B50446C07905F0CEFBA579003815
:1064600025F0080318BF0120C5F340058542A3713C
:106470000AD001F067F9A379206083F00203A371C9
:10648000A079C0F3C00038BD01F05CF92368C01AE0
:10649000A3889842F4D3A37903F00103AB42EFD071
:1064A00001F050F9A379206083F0010343F0080361
:1064B000E5E791F85C3010B50446016013B1886DD2
:1064C00001F096F9204610BD10B5036893F85C20E2
:1064D000044612B1986D01F093F9204610BDF8B54D
:1064E0001F469DF8243004460D4616462BB1012365
:1064F00080F85C30583001F06BF9089B236300236F
:10650000636306B1A66425B1294604F1380001F0A1
:106510002AFE069B2365079BE069A4F84C70FF2BBD
:10652000B8BFFF23A4F8543008B1FEF7C6FAB4F898
:106530005400FEF7C0FAE061F8BD00002DE9FF410C
:1065400004460025174698460E4605F011F80D49F9
:10655000E56104F1380001F0A8FD9DF82830A5643C
:10656000CDE90283FF220F23CDE90032204684F8D3
:106570005C503B462A463146FFF7B1FF204604B047
:10658000BDE8F0818BF30B0010B50446204604F003
:106590004BFF0028FAD0204604F054FDC0B210BDD5
:1065A0002DE9F04705468846FFF7EEFFEB691870C6
:1065B000EB6993F800A04FF001090AF0F00A0027F8
:1065C0004C462846FFF7E0FF2646EB69985500F059
:1065D0007F0313FB09F31F4401340306A4B2BFB2C7
:1065E0004FEAC919EDD4631EBAF1300F88F80030B4
:1065F0001ED12846FFF7C8FFEB6918552846FFF75C
:10660000C3FFF41C0236B6B2EB69A4B29855022659
:10661000B6B2BE420ED22846FFF7B6FFB5F85430E8
:10662000A34284BFEB6918550134A4B20136EFE7E9
:106630000026EDE7B5F85430A3422CBF20460020D9
:10664000BDE8F0872DE9F34115461E461A46074678
:106650000023964602A802F07F0CBEF17F0F03F1E3
:106660000104034488BF4CF0800CBEF17F0F4FEA59
:10667000D212E4B203F804CC1ED8C4F10403C4F16E
:106680000500E954224601A9284405EB030805F05A
:10669000C7FC721C22444146384604F0BEFC054645
:1066A00001F050F8621C78623244A8B2131A5842C2
:1066B000584102B0BDE8F0812346CAE70233F0B585
:1066C000054698B20023CE5C9CB256B1B5F854C0D2
:1066D000844503F1010704D9441C16543B46A0B27B
:1066E000F1E799B2411A0A44210A02F8021C02F8A1
:1066F000013CF0BD38B5044604F0B8FD002814BFD5
:106700000125002502D1204604F0E8FE284638BDC8
:106710002DE9F04788B00446DDF840809DF850A090
:10672000894617461E46FFF7E5FF0546002840F05C
:10673000CD80214601A8FFF7BCFEA16C002940F0E6
:106740008880B4F84C20A16B2B46204604F010FD45
:1067500000287AD0012323849DF85430E269042B69
:106760005B4B40F08180186899889B79ADF80C10DC
:106770008DF80E300290C2F805009DF80E30BDF87D
:106780000C10A2F80910D3720C23B8F1000F00F01E
:1067900081809DF848009DF84420400140EAC200F5
:1067A00040F00600C0B2BAF1000F01D100F0FD00C8
:1067B0001FB1002E70D140F08000E269D054226DEC
:1067C000E169581C12120A549A1CE169206D885420
:1067D0000333E26949462046FFF770FF0346B8F1EC
:1067E000000F0BD0E26941462046FFF767FFE269E0
:1067F000139903462046FFF761FF034667B1E2693C
:1068000039462046FFF75AFF03462EB1E26931466A
:106810002046FFF753FF0346053BE2699BB2102178
:106820002046FFF70FFF00F08DFFC4E909004FF489
:106830007A76204604F0F8FD88BB00F083FFA36A57
:10684000C01A236D73439842F3D9204604F046FEE4
:1068500035E002A804F07EFAB4F84C202B4602A9D9
:10686000204604F065FD73E7D3F80700D3F80B105A
:10687000DB7B0DF1080CACE803008CF8003002ABB8
:1068800003CBC2F80500C2F809109CF8003053731E
:106890000E237AE7022086E740F0C0008DE702A9C8
:1068A0002046FFF77DFE0428CFD1E369DE78002E75
:1068B000CBD100F047FF0125A06284F82C6001A82D
:1068C000FFF702FE284608B0BDE8F0870025F9E78B
:1068D000BCE00B007FB501230422CDE90432002384
:1068E000CDE90233CDE900331A46FFF711FF07B0B7
:1068F0005DF804FB2DE9F74FDDF83C809DF834503E
:106900009DF8389004468B4616461F46FFF7F2FE68
:106910008246002851D0214601A8FFF7CAFDB4F8ED
:106920005420E069002105F0A3FB0523E2695946E4
:106930002046FFF7C3FE6B1E012B15D8218CE3699F
:10694000013189B22184090A1954421CE369218C5E
:1069500092B20230995480B2B8F1000F04D0238C67
:106960005A1C2284A8F8003000210B188F42E269DB
:106970009BB20AD9B4F854C09C4506D916F801C098
:1069800002F803C0013189B2EFE79DF83010002909
:106990000CBF30213121B9F1000F01D041F00801C5
:1069A000022D0ED141F00401053B9BB22046FFF7BA
:1069B00049FE824601A8FFF787FD504603B0BDE8B7
:1069C000F08F012D08BF41F00201EDE71FB5089CD3
:1069D0000394002402949DF81C4001949DF81840F3
:1069E0000094FFF787FF04B010BD30B587B00446B0
:1069F000104605910492FEF701F800250346CDE903
:106A00000155DDE9042100952046FFF7DFFF07B0BF
:106A100030BD73B504460E46FFF76CFE0546C8B19F
:106A2000214601A8FFF745FDE36962221A70E36978
:106A300002225A70E369320A9A70E369DE70E169F2
:106A40000422204604F0E9FA051E01A818BF01251A
:106A5000FFF73AFD284602B070BD73B504460E46F6
:106A6000FFF748FE0546C8B1214601A8FFF721FD02
:106A7000E36972221A70E36902225A70E369320AEA
:106A80009A70E369DE70E1690422204604F0C5FAD9
:106A9000051E01A818BF0125FFF716FD284602B004
:106AA00070BD2DE9F04F2DED028B87B000AF04468D
:106AB000FFF720FE8146F8B1214607F11400FFF7E9
:106AC000F8FC00F03FFE236D4FF47A725343A26A44
:106AD000821A9A42064603D8626A821A934221D2E7
:106AE00094F82C307BB1204604F0F8FC4FF00009FC
:106AF00007F11400FFF7E8FC48461C37BD46BDEC23
:106B0000028BBDE8F08FE269C0211170E269537019
:106B1000E1690222204604F080FAC4E909660123F3
:106B200084F82C30204604F07FFC0028E0D007F1E8
:106B300013012046FFF734FD83460028D8D0E369CF
:106B4000A662197801F0F002302A7FD1D4F830A083
:106B5000BAF1000FCCD097F813C06A4608EE102A9D
:106B600003EB0C025178957805EB0125ADB205F1E8
:106B700008026946D208A1EBC20295460CF1030255
:106B8000FA6003EB020E0DEB05026846C7F808D069
:106B90007A60D7E901218A4206D00A461EF8018BA5
:106BA00002F8018BBA60F4E70022425593F80080A6
:106BB000F96808F00608ABEB0C02033AB8F1020FD3
:106BC000A2EB0502294425D113F801E01944023A49
:106BD00091F801B00CF10501294419440BEB0E2B7F
:106BE000D047E36940221A70E3691FFA8BFB83F8F0
:106BF0000180E3694FEA1B229A70E36983F803B0CE
:106C0000E1690422204604F008FA666218EE103AA0
:106C10009D466DE7B8F1040F15D113F801E0194452
:106C2000023A91F801B00CF10501294419440BEB2B
:106C30000E2BD047E36950221A70E36902221FFA33
:106C40008BFB5A70D5E71944D047DFE7502A08D1AB
:106C50009A78D97801EB022189B22046FFF7D9FE54
:106C600046E7402A12D1626B002A3FF441AFBBF1E4
:106C7000040F7FF43DAF11F0060F7FF439AF997820
:106C8000D87800EB012080B2904731E7602A08D124
:106C90009A78D97801EB022189B22046FFF7DDFE10
:106CA00026E7702ADFD0902A3FF422AFC02A0AD10B
:106CB000D0221A70E36900225A70E169022220464C
:106CC00004F0ABF914E7D02A04BF002384F82C3079
:106CD0000EE7F7B504460F461646FFF70BFD0546CF
:106CE00010B3214601A8FFF7E4FB238C01339BB2CC
:106CF000EBB12384238CE2691B0A5371E369228C74
:106D00009A71E269072339462046FFF7D7FCE36909
:106D10001E54043883B2E26982212046FFF792FCB8
:106D2000054601A8FFF7D0FB284603B0F0BD0123BC
:106D3000DFE70022FFF7CDBF10B5044B0360044628
:106D4000C06A08B100F0D0FF204610BD70ED0B0006
:106D500010B50446FFF7F0FF20465021FDF7AFFEC7
:106D6000204610BD002910B54BDBB0F90C408C4219
:106D700047DD002A45DBB0F90E40944241DD847EB8
:106D8000022C1FD0032C26D0012C04D10489D2431D
:106D900014440A4621B2012B23D0022B32D083BBEC
:106DA000002A13460489C06AB8BFD31DDB1013FB49
:106DB000041102F0070201239340425C22EA03021D
:106DC00042541EE00489013C611A4489D2432244A2
:106DD00009B212B2DFE74489013C641A114622B2BB
:106DE000D9E7002A04891346B8BFD31DDB1013FB73
:106DF0000411C36A02F0070001228240585C02437A
:106E00005A5410BD002A13460489C06AB8BFD31D66
:106E1000DB1013FB041102F00702012303FA02F254
:106E2000435C5A40CCE7000070B504461D4600267E
:106E3000FFF704F8114B2360666215B904F088FF70
:106E40000546FF2384F8333084F836309DF910303E
:106E500084F837300A4BA363012384F83C30059B48
:106E6000A3644FF6FF72069BA286C4E90A56266405
:106E7000A4F84460E364204670BD00BF70ED0B00D1
:106E8000BCE80B00F8B50446806A0D4690B194F951
:106E9000301004F0ABF8A06A036800219B689847A3
:106EA000A06A036829469B689847A06ABDE8F84035
:106EB00004F0A3B894F93530014698B204F083FE8B
:106EC000606A20B12946BDE8F84001F03FB80826C5
:106ED000802794F9330005EA070180B204F073FEBD
:106EE00094F93400012180B204F06DFE94F934006D
:106EF000002180B204F067FE013E4FEA5707E8D157
:106F0000F8BD38B50446806A0D4680B1A16C04F026
:106F10005FF8002D204614BFA721A621FFF7B2FF7E
:106F2000A06A88B1E16CBDE8384004F051B8606AED
:106F300018B104F1380100F09BFF94F936000021EC
:106F400080B204F040FEE4E794F93600012180B2FB
:106F500004F039FE606A18B1BDE8384000F06EBF39
:106F600038BD2DE9F8430446806A0D468F1840B3BA
:106F700094F9301004F03AF8A06A036800219B6885
:106F800098470126AF42A06A17D01F2E0CD904F0F3
:106F900034F894F93010A06A04F028F8A06A036865
:106FA00000219B6898470126A06A15F8011B036819
:106FB00001369B689847F6B2E4E7BDE8F84304F071
:106FC0001CB894F93530014698B204F0FCFDBD427E
:106FD00022D0606A15F8019B18B1494600F0B6FF4F
:106FE000F5E708264FF0800894F9330009EA080114
:106FF00080B204F0E8FD94F93400012180B204F07D
:10700000E2FD94F93400002180B204F0DCFD013E81
:107010004FEA5808E8D1DAE7BDE8F883B0F90A305A
:10702000DA1D48BF03F10E02B0F90830C06AD21071
:107030005A43002105F01CB82DE9FF411E46C36AE2
:107040009DF8288004460F461546C3B12046FFF739
:10705000E5FFB4F90A00B4F90810202821DC202348
:1070600001222038CDE9013200EBD070732373394F
:10707000009301EBD171894B40F34F0221E0B0F94D
:107080000A30D81D48BF03F10E00B4F90830C01013
:10709000584300F021FEE0620028D7D104B0BDE8DB
:1070A000F0814038C0F3C03202FA80F24023012060
:1070B000CDE90130522352390093794B01EBD17164
:1070C0005210204641F34F01FEF7CEFEA06A84F82D
:1070D0003170002878D0002D74D1B4F90A30202BFB
:1070E0000CBF3C253D2584F83050B8F1000F01D08D
:1070F00003F072FFFEB194F9370000281BDB012179
:1071000080B204F04FFD94F93700012180B204F001
:107110005AFD012003F0E4FC94F93700002180B20D
:1071200004F051FD0A2003F0DBFC94F93700012143
:1071300080B204F048FDA06A002874D0A16C03F06E
:1071400047FF042257492046FFF70BFF61890139A9
:10715000C9B22046FFF796FE534904222046FFF7A6
:1071600000FF94F93130012B0CBF1021142120466F
:10717000FFF788FE04224D492046FFF7F2FEA36880
:107180004B4A93425CD14B4904222046FFF7E9FE6B
:10719000D9212046FFF776FE94F93130012B0CBF40
:1071A0002221F1212046FFF76DFE204642490622AA
:1071B000FFF7D7FEA06A002863D0E16C03F008FF58
:1071C00001206BE76DB28EE794F93500012180B2A2
:1071D00004F0E8FC94F93600012180B204F0E2FCEE
:1071E00094F93600012180B204F0EDFC656A3DB1EE
:1071F000B8F1000F3FF47EAF284600F00BFE79E7B0
:1072000094F93300012180B204F0CCFC94F93400ED
:10721000012180B204F0C6FC94F93400294680B202
:1072200004F0D1FC66E7606A18B104F1380100F09F
:107230001FFE94F93600002180B204F0C4FC80E700
:107240001E4A93420ED11E4903222046FFF789FEB3
:1072500094F93130012B0CBF9F21CF212046FFF73D
:1072600011FE95E7174A934292D11749032220460F
:10727000FFF777FE94F93130012B0CBF1021AF21BD
:10728000ECE794F93600012180B204F09CFC606ABE
:10729000002895D000F0D2FD92E700BF88EB0B00EC
:1072A000C8E80B00D0ED0B00D4ED0B00D8ED0B00BF
:1072B00080002000E2ED0B00DCED0B0080004000C0
:1072C000E6ED0B0060001000E9ED0B0070B5002A40
:1072D000BDF810503DDBB0F90A40944239DD002979
:1072E000BEBF5B181BB20021B0F90840CE18A64201
:1072F000C4BF631A1BB2002B2BDDC06AD61014FB6F
:107300000611014402F0070001228240012DD2B291
:1073100016D0022D0BD0E5B9D243D2B20B4499421C
:1073200017D011F8010B104001F8010CF7E70B44DE
:1073300099420ED011F8010B504001F8010CF7E70B
:107340000B44994205D011F8010B104301F8010CD0
:10735000F7E770BDF0B50029BDF8145076DBB0F941
:107360000860B14272DA002ABEBF9B181BB200222D
:10737000B0F90A40D718A742C4BFA31A1BB2002B0A
:1073800064DDC2F3C404C76A16FB041612F00702D8
:10739000DBB207EB060423D0C2F10802D2B22D49BA
:1073A00093423CBF4FF0FF0CA2EB030E895C3CBF45
:1073B0004CFA0EFC0CEA0101012D07D0022D2ED053
:1073C0004DB917F806C02CEA010103E017F806C012
:1073D00041EA0C01B955934238D3B0F908100C4476
:1073E0009A1AD2B2072A0ED9022D1DD1134621783E
:1073F000C9432170083BB0F90810DBB2072B0C44DD
:10740000F5D802F007020AB3134B012D9B5C1AD08A
:10741000022D1CD0D5B9227822EA030315E017F813
:1074200006C081EA0C01D5E7291E18BF0121494297
:10743000C9B213462170083BB0F90860DBB2072BD4
:107440003444F7D8DDE7227813432370F0BD227867
:107450005340FAE7C0ED0B00C8ED0B0070B41446C2
:10746000827EBDF80C60022A0DD0032A18D0012AB2
:1074700011D10289E443144424B203960A462146FA
:1074800070BCFFF767BF42890589E443194414447F
:10749000691A24B209B20396224670BCFFF716BFE0
:1074A00045891944691A09B2E7E730B41446827E67
:1074B000BDF80850022A0DD0032A18D0012A11D194
:1074C000E2180489A41A24B202950A46214630BC67
:1074D000FFF7FCBE0289C9431144E2184489A41A8B
:1074E00009B224B20295224630BCFFF733BF42896D
:1074F000C943114409B2E7E72DE9F8430446806A1D
:10750000002842D0A16C03F063FD474905222046C4
:10751000FFF727FD218901392046C9B2FFF7B2FCE8
:10752000B4F90A30DE1D48BF03F10E06D4E90A059E
:107530002389F61013FB06F615FA86F600283AD0D2
:1075400094F9301003F052FDA06A036840219B6853
:1075500098470127B542A06A24D01F2F0CD903F009
:107560004CFD94F93010A06A03F040FDA06A036856
:1075700040219B6898470127A06A15F8011B036802
:1075800001379B689847FFB2E4E7606A18B104F1DD
:10759000380100F06DFC94F93600002180B204F04F
:1075A00012FBB2E703F029FDA06A78B3E16CBDE8F5
:1075B000F84303F00DBD94F93500012180B204F0C9
:1075C00002FBAE42F0D0606A15F8019B18B1494643
:1075D00000F0BCFCF5E708274FF0800894F9330071
:1075E00009EA080180B204F0EEFA94F934000121AE
:1075F00080B204F0E8FA94F93400002180B204F07B
:10760000E2FA013F4FEA5808E8D1DAE794F9360088
:10761000012180B204F0D7FA606A18B1BDE8F843DE
:1076200000F00CBCBDE8F883ECED0B0010B58368EE
:10763000044613B1032201469847204610BD03F0CB
:107640004FBA00F07FB870477047704703065ABFC3
:10765000024B53F820000020704700BFF4ED0B00F0
:1076600003065ABF024B53F820000020704700BFAA
:10767000F4EF0B0008B5024B1B689B68019308BD33
:107680006802030008B5024B1B68DB68019308BD64
:107690006802030008B5024B1B685B68019308BDD4
:1076A0002C02030008B5024B1B689B68019308BDC0
:1076B0002C02030008B5024B1B68DB68019308BD70
:1076C0002C02030008B5024B1B681B69019308BD1F
:1076D0002C02030008B5024B1B685B69019308BDCF
:1076E0002C02030008B5024B1B689B6A019308BD7E
:1076F0002C02030008B5024B1B681B6B019308BDED
:107700002C02030008B5024B1B689B6F019308BD58
:107710002C02030008B5024B1B685B69019308BD8E
:107720006C02030008B5024B1B685B68019308BD3F
:107730001802030008B5024B1B68DB68019308BD03
:107740001802030008B5024B1B685B69019308BD72
:107750001802030008B5024B1B689B68019308BD23
:107760007802030008B5024B1B689B6C019308BDAF
:107770007802030008B5024B1B68DB6C019308BD5F
:107780007802030008B5024B1B68DB6F019308BD4C
:107790007802030008B5034B1B68D3F884300193CB
:1077A00008BD00007802030008B5034B1B68D3F83E
:1077B0009830019308BD00007802030008B5034B20
:1077C0001B68D3F8F030019308BD00007802030075
:1077D00008B5024B1B681B6B019308BD48020300F0
:1077E00008B5024B1B685B6B019308BD48020300A0
:1077F00008B5024B1B689B6B019308BD4802030050
:1078000008B5024B1B681B6C019308BD48020300BE
:1078100008B5024B1B685B6C019308BD480203006E
:1078200008B5024B1B689B6C019308BD480203001E
:1078300008B5024B1B68DB6C019308BD48020300CE
:1078400008B5024B1B685B6D019308BD480203003D
:1078500008B5024B1B685B69019308BD6402030015
:1078600008B5024B1B681B6A019308BD6402030044
:1078700008B5024B1B685B6A019308BD64020300F4
:1078800008B5024B1B689B6A019308BD64020300A4
:1078900008B5024B1B689B68019308BD3C020300BE
:1078A00008B5024B1B68DB68019308BD3C0203006E
:1078B00008B5024B1B681B69019308BD3C0203001D
:1078C00008B5024B1B685B69019308BD3C020300CD
:1078D00008B5024B1B689B69019308BD3C0203007D
:1078E00008B5024B1B68DB69019308BD3C0203002D
:1078F00008B5024B1B681B6A019308BD3C020300DC
:1079000008B5024B1B689B6A019308BD3C0203004B
:1079100008B5024B1B68DB6A019308BD3C020300FB
:1079200008B5024B1B681B6C019308BD3C020300A9
:1079300008B5024B1B681B68019308BD28020300B1
:1079400008B5024B1B68DB68019308BD28020300E1
:1079500008B5024B1B689B69019308BD2802030010
:1079600008B5024B1B68DB69019308BD28020300C0
:1079700008B5024B1B681B6A019308BD280203006F
:1079800008B5024B1B685B6A019308BD280203001F
:1079900008B5024B1B689B6A019308BD28020300CF
:1079A00008B5024B1B68DB6A019308BD280203007F
:1079B00008B5024B1B681B6B019308BD280203002E
:1079C00008B5024B1B685B6B019308BD28020300DE
:1079D00008B5024B1B681B6C019308BD280203000D
:1079E00008B5024B1B689B69019308BD3802030070
:1079F00008B5024B1B68DB69019308BD3802030020
:107A000008B5024B1B681B6A019308BD38020300CE
:107A100008B5024B1B689B6A019308BD380203003E
:107A200008B5024B1B681B6B019308BD38020300AD
:107A300008B5024B1B689B6B019308BD380203001D
:107A400008B5024B1B681B68019308BD3002030098
:107A500008B5024B1B685B69019308BD3002030047
:107A600008B5024B1B68DB69019308BD30020300B7
:107A700008B5024B1B681B6A019308BD3002030066
:107A800008B5024B1B685B6A019308BD3002030016
:107A900008B5024B1B68DB6B019308BD3002030085
:107AA00008B5024B1B681B6C019308BD3002030034
:107AB00008B5024B1B685B6C019308BD30020300E4
:107AC00008B5024B1B681B68019308BD4C020300FC
:107AD00008B5024B1B685B68019308BD4C020300AC
:107AE00008B5024B1B689B68019308BD4C0203005C
:107AF00008B5024B1B681B69019308BD4C020300CB
:107B000008B5024B1B685B69019308BD4C0203007A
:107B100008B5024B1B689B69019308BD4C0203002A
:107B200008B5024B1B68DB69019308BD4C020300DA
:107B300008B5024B1B681B6A019308BD4C02030089
:107B400008B5024B1B685B6B019308BD6002030024
:107B500008B5024B1B681B6D019308BD6002030052
:107B600008B5024B1B685B6D019308BD6002030002
:107B700008B5024B1B68DB6E019308BD6002030071
:107B800008B5024B1B681B6F019308BD6002030020
:107B900008B5024B1B685B68019308BD2002030017
:107BA00008B5024B1B685B69019308BD2002030006
:107BB00008B5024B1B68DB6A019308BD2002030075
:107BC00008B5034B1B68D3F88830019308BD00004B
:107BD0002002030008B5034B1B68D3F894300193CF
:107BE00008BD00002002030008B5024B1B685B685B
:107BF000019308BD4002030008B5024B1B689B6857
:107C0000019308BD4002030008B5024B1B68DB6806
:107C1000019308BD4002030008B5024B1B681B69B5
:107C2000019308BD4002030008B5024B1B685B6965
:107C3000019308BD4002030008B5024B1B689B6915
:107C4000019308BD4002030008B5024B1B68DB69C5
:107C5000019308BD4002030008B5024B1B681B6A74
:107C6000019308BD4002030008B5024B1B681B6B63
:107C7000019308BD4002030008B5024B1B685B6B13
:107C8000019308BD4002030008B5024B1B681B6C42
:107C9000019308BD4002030008B5024B1B685B6CF2
:107CA000019308BD4002030008B5024B1B689B68A6
:107CB000019308BD4402030008B5024B1B68DB6951
:107CC000019308BD4402030008B5024B1B68DB6B3F
:107CD000019308BD4402030008B5024B1B681B68F2
:107CE000019308BD1C02030008B5024B1B685B68CA
:107CF000019308BD1C02030008B5024B1B689B687A
:107D0000019308BD1C02030008B5024B1B68DB6928
:107D1000019308BD1C02030008B5024B1B685B6A97
:107D2000019308BD1C02030008B5024B1B68DB6A07
:107D3000019308BD1C02030008B5024B1B681B6BB6
:107D4000019308BD1C02030008B5024B1B68DB6BE6
:107D5000019308BD1C02030008B5024B1B681B6C95
:107D6000019308BD1C02030008B5024B1B685B6C45
:107D7000019308BD1C020300002240681146FFF772
:107D80006BBF002240681146FFF776BF40680022B3
:107D9000FFF76ABF4068002281F00101FFF754BF7E
:107DA000002340681A461946FFF746BF0023406883
:107DB0001A461946FFF738BF002240681146FFF700
:107DC0002BBF002240681146FFF716BF4068002213
:107DD0000221FFF719BF002340681A46FFF704BFCE
:107DE000024B03225A60024A1A60704788E6032059
:107DF000FCF10B000021FFF75BBE0021FFF750BE36
:107E000010B5044608462170FFF72AFE0023636080
:107E1000204610BD13B504460078FFF7EEFF58B9B1
:107E2000207801904FF6FF71FFF70AFE019802B02B
:107E3000BDE81040FFF7DEBF02B010BD0078FFF7CD
:107E4000D9BF0000400830B5186000241868884287
:107E5000E5B206D90134082C02D040081860F5E7D5
:107E60000725024B5B5D137030BD00BF30F20B0085
:107E70002DE9F04306468FB000780C46FFF7BDFFB2
:107E800000281BDB35781422002109A804F0F0F843
:107E90000B23002209A92846ADF82430FFF7F0FD96
:107EA0009DF82D3013B19DF82C5055B10027B946DF
:107EB000B846012523795DB1C3B100200FB0BDE8FC
:107EC000F083DDF830809DF834909DF83570F1E74F
:107ED000002B35D1A368434508D18DF820908DF84B
:107EE0002170BDF82020A3899A42E6D00023A16822
:107EF0008DF80F300A9804AB0DF10F02FFF7A2FFC7
:107F0000217985B989B9A36843450ED38DF82090AE
:107F10008DF82170BDF82020A3899A4205D1049BD9
:107F2000434502D1C9E70029F9D100230193637BBE
:107F300000939DF80F20237B3078FFF7A9FDBCE765
:107F4000CDE900552B462A460121F5E708B5007812
:107F5000FFF77EFDC0B208BD054B02221A60054B3B
:107F6000054A9A600020C3E90000FFF711BE00BF78
:107F70009CE6032090E603200000FFFF10B50446B6
:107F8000FCF73CFD013823182046834206D90278CD
:107F9000197800F8011B03F80129F6E710BD70B548
:107FA0000C46911E22291DD8254630B92344302283
:107FB0009D4210D205F8012BFAE7B0FBF2F602FB66
:107FC0001600C1B2092894BF30315731C9B205F843
:107FD000011B3046E9E7002320462B70FFF7CEFF58
:107FE000204670BD0020FCE738B5031E0C46154640
:107FF0000EDAB3F1004F4FF02D0214BF584218466D
:1080000001230A702A461944FFF7C9FF204638BDEC
:108010000123F9E710B504460068FFF765FE204626
:1080200010BD10B50446006808B1FFF75DFE0023DF
:10803000C4E90133236010BD38B504460D4600681D
:108040000131FFF759FE10B1C4E90005012038BD28
:1080500010B50368044623B143688B4201D3012065
:1080600010BD2046FFF7E8FF0028F9D0A368002BD9
:10807000F5D122681370F2E737B50D46114601922B
:108080000446FFF7E5FF019A28B92046FFF7C9FF2C
:10809000204603B030BDA2602946206803F0C0FF2F
:1080A0002268A3680021D154F2E7002313B5C0E988
:1080B000003304468360037341B108460191FCF725
:1080C0009DFC019902462046FFF7D6FF204602B0EC
:1080D00010BD38B5054600680C4668B16A688B6803
:1080E0009A4207D3096804F010F8A368AB60002334
:1080F000A36038BDFFF7F8FD23682B6063686B60F1
:10810000A368AB600023C4E90033F1E710B5002396
:10811000C0E90033044683600373FFF7DAFF2046AB
:1081200010BD884210B5044605D00B682BB18A6893
:108130001946FFF7A1FF204610BDFFF772FFFAE7CF
:1081400010B500230446C0E9003383600373FFF7D2
:10815000E8FF204610BD884210B5044601D0FFF765
:10816000B8FF204610BD13B5044659B10846019129
:10817000FCF744FC019902462046FFF77DFF2046AC
:1081800002B010BDFFF74DFFF9E710B504468AB005
:108190000023C4E90033A3602373084601A9FFF755
:1081A00023FF01A92046FFF7DEFF20460AB010BDDD
:1081B00070B505460E4609B9002070BD6AB18468E5
:1081C00014442146FFF744FF0028F5D02868AB6827
:1081D0003146184403F099FFAC600120EDE707B584
:1081E00000238DF80410012201A98DF80530FFF756
:1081F000DFFF03B05DF804FB02680B46096862B15B
:1082000041B9806860B110787047986840B10978CA
:10821000484270471046FCF7E7BB0029F5D10846F5
:10822000704708B582688B689A4205D1FFF7E4FF72
:10823000B0FA80F0400908BD0020FCE708B50068EE
:1082400040B103F0C9FE51EC100BFCF75FFB00EEF0
:10825000100A08BD9FED010AFBE700BF0000000007
:1082600070470000064B994210B500F10C0405D090
:10827000084603F099FD002808BF0024204610BDE1
:108280002CF30B0010B530210446FCF718FC2046F7
:1082900010BD3021FCF713BCF0B50025EC1C8C425E
:1082A0000DD86E1C445D875D974205D12644B142CE
:1082B00005D31D60601CF0BD01342544EEE70020AD
:1082C000F9E710B40C46036820685DF8044BD3E965
:1082D00000211047012A38B5044602D10B682360FB
:1082E00003E0022A03D0032A0DD0002038BD082065
:1082F0000D68FCF7DEFB03460028F0D095E803008C
:1083000083E80300EBE700680028EED00821FCF7C3
:10831000D6FBEAE710B5836804462BB10322014679
:1083200098470023C4E9023310BD10B54368013BF0
:108330000446436063B903689B689847A368013BA0
:10834000A3602BB923682046DB68BDE810401847BE
:1083500010BDA0F13003DAB2092A01D818467047DF
:10836000A0F16103052B01D857387047A0F14103F4
:10837000052B94BF37384FF0FF30704710B50023FE
:108380000370044B04461868FFF752FA0123237068
:10839000204610BDA4E6032010B5037804461BB1A7
:1083A000024B1868FFF74CFA204610BDA4E60320E4
:1083B000052994BF405C002070470A6802604A6843
:1083C0004260704782B00346086849686A4603C243
:1083D0006A4603CA18601846596002B0704708B56B
:1083E00082798B799A4206D1062203F009FEB0FA0F
:1083F00080F0400908BD0020FCE74FF0FF33036028
:1084000083800020704708B502460021016041606A
:10841000FFF7F3FF9171104608BD000010B501236E
:108420000361054B024603F1100153F8044B42F877
:10843000044B8B42F9D110BDD2E00B0010B50B46B6
:108440000446B1B1012A01F110020AD1014653F8E4
:10845000040B41F8040B9342F9D101232361204618
:1084600010BD411E12F8010D01F8010F9A42F9D119
:10847000F3E7102203F0FCFDF1E738B504460D46A2
:10848000FFF7CCFF00232361A581204638BD08B546
:1084900002690B699A4206D1102203F0B1FDB0FACD
:1084A00080F0400908BD0020FCE7000001232DE911
:1084B000F3410361344B0C460646024603F11001BA
:1084C00053F8040B42F8040B8B42F9D144B3242136
:1084D000204603F049FE04284FF0000523D1ADF8F3
:1084E000045001AFA51C063415F8020CFFF731FF4C
:1084F000B0F1000812DB15F8010CFFF72AFF002885
:108500000CDB023540EA0810A54207F8010BEBD15D
:108510009DF8053033739DF8043073730023336185
:1085200002B0BDE8F0814FF010082421204603F08E
:108530001BFEA84207D842460021304602B0BDE8E3
:10854000F04103F095BDB8F1000FE9D0605DFFF791
:1085500000FF030615D4000108F1FF38C7B206F882
:1085600008702421204603F0FFFD0135A84208D9F8
:10857000605DFFF7EEFE40B20028A4BF384306F866
:1085800008000135D1E700BFD2E00B0013B5044667
:108590000191FFF743FF20460199FFF787FF20462F
:1085A00002B010BDF7B5054616461F460A4601AB98
:1085B000D0E90001FFF770FE30F002040CD0841EF9
:1085C000BC4228BF3C463EB101992B68023122468D
:1085D0001944304603F024FD204603B0F0BD37B502
:1085E00013460C4601920A4608210546FFF7DAFFBA
:1085F00040B9019B22460921284603B0BDE830401E
:10860000FFF7D0BF03B030BDF0B50C4689B00C49C0
:108610000546FFF74AFD1F2269462046FFF7DFFFA8
:10862000064650B16C46002714F8011B2846FFF798
:10863000D6FD10B10137BE42F6D1284609B0F0BDD3
:108640008BF30B0007B5022301AA1921FFF7AAFF3C
:1086500008B1BDF8040003B05DF804FB10B5D0E923
:10866000063203EBC2029342184606D004682488FF
:108670008C4203F10803F6D110BD0020FCE7000096
:1086800070B50025056006463020FCF712FA044656
:1086900088B10123C0E90133094B03604FF6FF7332
:1086A00083810E30FFF7AFFEC4E90655C4E90855D3
:1086B000C4E90A55A57574600C343460304670BD49
:1086C00018F30B0037B50D46044601A8FFF756FE18
:1086D0002A68D2F802302360D2F80630636001A81D
:1086E000FFF75AFE204603B030BD30B5054687B0CF
:1086F0000C4601A8FFF742FE2A68236812881B88EF
:108700009A420DD1294602A8FFF7DCFF214604A8B2
:10871000FFF7D8FF04A902A8FFF761FE044600B9DD
:10872000002401A8FFF738FE204607B030BD000046
:1087300010B504466420FCF7BCF968B10023C0E919
:108740000033C0E90233C0E90433C0E906330362F1
:10875000C362C363C364C365206020B90A4A0B497E
:108760000A20FFF7EDF90020FEF7F4FF20B1064ADA
:1087700007490A20FFF7E4F9216806480022FFF7BD
:108780001DF8204610BD00BF35770B0038F20B00F6
:1087900076F20B009D900B0010B50A4C2378BFF3C6
:1087A0005B8FDB070CD42046FCF798F940B10648F4
:1087B000FFF7BEFF2046FCF796F9044803F006FCDD
:1087C000014810BDA0E60320A8E60320A1890B0004
:1087D00008B50020FEF7BEFF00EAE07008BD30B526
:1087E00085B000240C23ADF806300D460323214646
:1087F00001A8CDE90244ADF80430FEF7BBFF002824
:1088000005DB214601A8ADF80850FEF7ABFF05B027
:1088100030BD10B504464069FFF766FAA068FFF75F
:1088200063FA204610BD002247F67F71C0E900229E
:10883000C0E90222C0E90422C0E90E22C0E91022E8
:10884000C0E91222C0E91422C0E91622C0E91822A8
:10885000C0E91B2202620263A0F868107047002082
:10886000FEF798BF70B5D0E90053044605EB031638
:10887000AE4204D02846FFF7CDFB1035F8E720685C
:10888000FFF732FA204670BD10B504460068FFF7C6
:108890002BFA204610BD70B50446C06DFFF724FAD0
:1088A000206DFFF721FA04F1380504F14400FFF7C9
:1088B000EBFF2846FFF7D6FF04F12800FEF7B6FECF
:1088C00004F11800FEF7B2FED4E90053242606FB9B
:1088D0000356AE4204D02846FFF79BFF2435F8E745
:1088E0002068FFF701FA204670BD38B5141E4368B2
:1088F000054602DB62189A4200DD5C1A2A685018AD
:1089000001191A44521A03F099FB6A68121B6A6033
:1089100038BD0B68036013B15A6801325A60704762
:1089200010B551F8043B044640F8043BFFF7F1FF53
:10893000204610BD10B50446006808B1FFF7F5FCED
:10894000204610BD70B5D0E90053044605EBC306C0
:10895000AE4204D0281DFFF7EDFF0835F8E7206888
:10896000FFF7C2F9204670BD70B5D0E90053044648
:1089700005EBC306AE4204D0281DFFF7DBFF083528
:10898000F8E72068FFF7B0F9204670BD10B504463F
:108990002430FFF7E9FF04F11800FFF7D3FF10BD03
:1089A00070B5174B1C6854B304F15400FEF73EFE3B
:1089B00004F14400FEF73AFE04F13400FEF736FEFF
:1089C00004F12400FEF732FED4E9065305EBC3069A
:1089D000AE4204D0281DFFF7ADFF0835F8E7A069C7
:1089E000FFF782F904F10C00FFF7BEFF2046FFF706
:1089F000A9FF20466421BDE87040FCF760B870BD57
:108A0000A8E60320826810B50AB903F0C9F9BDE8E9
:108A10001040C36818472DE9F0470023C0E9003330
:108A20008360D1F80480984505460F464ADD4FEA39
:108A30000810FFF751F90646002843D0D5E9004158
:108A4000A04204EB011A16D9504515D2AAF1100A1A
:108A5000A4F11009AAEB04040444D1451DD01CB1B3
:108A600051462046FFF752FB5046FFF7D3FAAAF1D2
:108A7000100A103CF1E710D0B146A2450DD0B9F173
:108A8000000F03D021464846FFF740FB2046FFF782
:108A9000C1FA103409F11009EFE72868FFF724F94B
:108AA000C5F808802E60D7E9004304EB0318A04501
:108AB00006D021463046FFF743FB10341036F6E768
:108AC0007B686B602846BDE8F08730B58DB00C46FA
:108AD00000F1380101A8FFF79EFF029B002B2FDD5C
:108AE00004F1140104A8FFF78FFD04F1080108A8A0
:108AF000FFF78AFD0A9A069B13431FD0DDE9014563
:108B000004EB0515AC4219D004A92046FFF789FBF8
:108B100060B1012408A8FFF77DFA04A8FFF77AFAEC
:108B200001A8FFF79FFE20460DB030BD204608A9E2
:108B3000FFF777FB10340028E4D0EAE70024E9E7E8
:108B40000124EDE7F8B50023C0E9003383604F68E6
:108B50009F4205460E463EDDF800FFF7BDF804468D
:108B6000C8B3D5E90003844200EBC30310D99C428B
:108B70000FD2083B1A1AA0F1080C22449C4518D0C9
:108B80001AB11968116059685160083B083AF5E755
:108B90000FD0014622468B420BD03AB1D1F800C02B
:108BA000C2F800C0D1F804C0C2F804C008310832CD
:108BB000F1E7FFF799F82C60AF60D6E9003103EBDD
:108BC000C100984206D01A6822605A686260083371
:108BD0000834F6E769602846F8BD70B50446002001
:108BE000C4E90000A0604E6886420D4612DD7100A7
:108BF000FFF782F870B12060A660D5E9003203EB80
:108C000042029A4204D033F8021B20F8021BF8E714
:108C10006B686360204670BD10B50379044623B9C4
:108C20000368186808B1FFF75FF8204610BD10B55B
:108C30000379044623B90368186808B1FFF754F8AC
:108C4000204610BD2DE9F043D0F86C808FB00F4660
:108C5000B8F1000F72D0056F002D6FD001F114092B
:108C60001F230022FF214846FFF79CFC0837FF2303
:108C70000446002219463846FFF794FCAC420646EB
:108C800006D0AE4230D0002420460FB0BDE8F083BD
:108C90002046FFF721F803AB04930023044603901A
:108CA0008DF8143070B92023CDE90630244B0093A1
:108CB0002449034606AA3220FEF74AFF04A8FFF71C
:108CC000ABFFE1E70246FF212B464846FFF76AFC6F
:108CD00003982A46414603F093F918B104A8FFF718
:108CE0009BFFCEE70124E9E72846FEF7F5FF0024C5
:108CF00003AB0646039004938DF8144078B9202303
:108D0000CDE906300E4B00930E49034606AA3220E9
:108D1000FEF71EFF344604A8FFF789FFB4E70246BA
:108D2000FF212B463846FFF73DFC03982A46414673
:108D300003F066F90028EED10124ECE70124A3E753
:108D4000B8F20B004FF20B0038B50D1E0446006858
:108D500003DDFEF7D1FF18B938BDFEF7C5FF0020CF
:108D60002060A5600120F7E708B583688B4202DA2E
:108D7000FFF7EAFF08BD0120FCE738B50023C0E992
:108D8000003383600D4649689942044610DDFFF7C1
:108D9000DBFF68B1D5E9003122681944994205D05A
:108DA0000AB11878107001330132F7E76B6863601D
:108DB000204638BD38B50B6803604B6843600446F5
:108DC0000D4608300831FFF7D8FF05F1140104F112
:108DD0001400FFF7D2FF95F8203084F820302046A9
:108DE00038BD1FB5044601A8FFF7C7FF019B029AD3
:108DF0002068236063686260039A0293A368A2609C
:108E000001900393FEF770FF04B010BD2DE9F0410F
:108E10000F4641681D4619448368994204469046AE
:108E200012DC266862683E44D21B3146701903F09A
:108E300005F92A464146304603F0F2F863682B44B0
:108E400063600120BDE8F081FFF77EFF0028E8D1D4
:108E5000F8E713460A46002110B50446416002B106
:108E60000BB9002010BDFF2B28BFFF23FFF7CEFF5B
:108E70000028F7D06068F5E7F8B50D46D0E9011392
:108E80009942044616460BDA276862687919521B24
:108E9000481C03F0D3F87E55636801336360F8BD66
:108EA0000131FFF751FF0028EED1F8E70A4641688B
:108EB000FFF7E2BF2DE9F74304461D460F4601AB1D
:108EC00090460A46D0E900019DF82890FFF7E4F9A2
:108ED000AE1C63680246B9F1000F26D128B33344B3
:108EE0001B1AFF2B09D801992046FFF7FEFC616889
:108EF00020463144FFF738FF18B9606803B0BDE879
:108F0000F0836A1C0199D2B22046FFF7B5FF0199A0
:108F10003A4601312046FFF7AFFF01992B46424602
:108F200002312046FFF772FFE7E7F118FF29E4D886
:108F30002046FFF719FF0028DFD0691CC9B2204680
:108F4000FFF7B4FF39462046FFF7B0FF61682B46B4
:108F50004246E6E730B49DF808501AB1029530BC9D
:108F6000FFF7A8BF406830BC70471FB50023C0E9B9
:108F7000003383600622009301238DF80F201946E9
:108F80000DF10F020446FFF7E5FF204604B010BDC7
:108F90008842F8B504460D46164614D9904213D2BD
:108FA000A2F10806751AA1F108072C44B74218D09F
:108FB0001CB131462046FFF7B3FC301DFFF7BAFC69
:108FC000083E083CF2E70CD0B5420AD01CB1294655
:108FD0002046FFF7A5FC281DFFF7ACFC0835083438
:108FE000F2E7F8BDF7B5044646686846FFF798FC17
:108FF000D4E901739F4212DB0137002F29DDF8000D
:10900000FEF76AFE0546F0B1D4E9001201EBC20298
:10901000FFF7BEFF2068FEF767FE2560A7602368A4
:10902000626803EBC60603EBC202314606F1080094
:10903000FFF7AEFF1EB169463046FFF771FC63686B
:1090400001336360012501A8FFF774FC284603B0D3
:10905000F0BD0025DEE7F8B5D0E9004305460F4630
:1090600004EBC306A64205D039462046FFF73DFB78
:1090700008B114B9F8BD0834F4E7201DFFF75AFC15
:10908000D5E9003204F1080103EBC2022046FFF7E4
:109090007FFF6B68013B6B60ECE700002DE9F0415E
:1090A00005468EB003A80C46FFF768F92E68F31E3C
:1090B0000D2B3CD8DFE813F00E0057003B00D30027
:1090C0003B003B003B003B003B009D009D009D00A2
:1090D0009D009D0004A8FFF7D3FA049BAA891A807B
:1090E0006968049808310230FFF76CF904A906A8F2
:1090F000FFF716FC06A904F11800FFF773FF0546F9
:1091000007A8FFF717FCC5B92023CDE906355E4B4C
:109110005E49009306AA2B460120FEF719FD049B29
:1091200029461888FEF740FB05A8FFF703FC03A8B3
:10913000FFF732F90EB0BDE8F081E36A23B104A96C
:1091400004F12400FFF75EFC05A8FFF7F3FB2021E4
:109150000023CDE906134E4A00924C4906AA01208D
:10916000FEF7F6FCE3E7A9892046FFF777FA064603
:109170000028DCD00568D5E906324FF6FF7129805A
:1091800003EBC2029A4203D053F8080B4180F9E77F
:10919000D5E9037307EBC308B84504D0381DFFF7C2
:1091A000C9FB0837F8E700232B61D5E9067307EB05
:1091B000C308B84504D0381DFFF7BCFB0837F8E7F3
:1091C0000023EB61AB72E36B23B1314604F1340051
:1091D000FFF718FC33684FF6FF721A80314604F12E
:1091E0001800FFF738FF20220023CDE90623294A83
:1091F000B2E7A9892046FFF731FA002897D0E36C3F
:10920000002B94D000230D2EADF8163001D0102E77
:1092100017D1002369681A4606258DF81530049188
:109220008DF814200690DDE9040109AB8DF81C606F
:10923000089583E80300236D06A904F144009847CC
:1092400075E70F2E01BF2B7A696803F0010208252C
:109250000FBFC3F340031A4619461D46DDE7A9892F
:109260002046FFF7FBF9014600283FF460AFE36DAD
:10927000002B3FF45CAF6B68069306AA236E04F1E3
:109280005400984753E700BFD3F20B004FF20B0096
:10929000F9F20B0003F30B0038B50D1E044600680D
:1092A00005DD14216943FEF727FD18B938BDFEF727
:1092B0001BFD00202060A5600120F7E72DE9F843A1
:1092C0000024C0E90044846088464968A1420746FA
:1092D0001ADDFFF7E1FFB8B1D8E900934FF0140CA5
:1092E000D7F800E00CFB039C09EB0405AC4508D063
:1092F0001EEB04061FBF0FCD0FC62B68336014345E
:10930000F2E7D8F804307B603846BDE8F8832DE9F1
:10931000F843D1E9008745688368E9199942044612
:1093200017DC1423266862685D4303FB07F95A4380
:109330002E44521B314606EB090002F07FFE4A46DE
:109340004146304602F06CFE63683B446360BDE812
:10935000F883FFF7A1FF0028E3D1F8E782B070B5EA
:109360000C4604A981E80C00D0E901139942054696
:1093700017DA142303FB04F16A682C685A430C447F
:10938000521AE018214604AE02F058FE0FCE0FC468
:10939000336823606B6801336B60BDE8704002B0D6
:1093A00070470131FFF778FF0028E2D1F5E72DE99A
:1093B000F04F002493B0931EC0E90044DBB2054691
:1093C0000F4690468460059379688C4272DA38685B
:1093D00007AB4246091B2044FEF75EFF0646002805
:1093E00068D0059B012B2FD8A0F1020B4FEA5B0B35
:1093F0004FF000090DF13C0A079BCB45234455D0A3
:109400003A6803EB4903134408A8D9789B7843EAE8
:109410000121FFF732F80DF1200EBEE80F000DF12B
:10942000340CACE80F00DEF80030CCF800309AE8DD
:1094300007008DE807000DAB0CCB69682846FFF7E5
:109440008DFF09F10109D7E7A8F10603012B2DD8FB
:10945000A0F1020B4FEA1B1B4FF000090DF13C0A73
:10946000CB45079B22D002333968234403EB091311
:109470000122194408A8FEF7E1FF0DF1200EBEE815
:109480000F000DF1340CACE80F00DEF80030CCF822
:1094900000309AE807008DE80700DDE90D236968D0
:1094A0002846FFF75BFF09F10109D9E7079B1C4438
:1094B000344489E7284613B0BDE8F08F30B5002367
:1094C00085B0C0E9003383600446022201A80D463E
:1094D000FFF76DFF01A92046FFF719FF01A8FFF76D
:1094E000D3F90222294601A8FFF761FF01A920460E
:1094F000FFF70DFF01A8FFF7C7F90322294601A8CE
:10950000FFF755FF01A92046FFF701FF01A8FFF76C
:10951000BBF90622294601A8FFF749FF01A9204609
:10952000FFF7F5FE01A8FFF7AFF90722294601A8CA
:10953000FFF73DFF01A92046FFF7E9FE01A8FFF76D
:10954000A3F9204605B030BD2DE9F04385B088462B
:10955000014601A89146FFF7B1FF019E029B4FF023
:10956000140E0EFB036C0027B4450DD0B94506F16F
:10957000140609D0A6F114050FCD0EFB07840FC405
:109580002B6823600137EFE701A8FFF77DF9384624
:1095900005B0BDE8F0832DE9F04F8BB00C4600F12B
:1095A000440101A8FFF78AFE029B002B4ADD04F16B
:1095B000140104A8FFF782FF04F1080107A8FFF7D0
:1095C0007DFF059D089E002D01DC002E38DD019AEF
:1095D000029FDDF81080DDF81C90142303FB0727A1
:1095E00003FB058503FB06969246BA4528D0C34681
:1095F000AB4515D059465046FEF749FF0BF1140B09
:1096000004460028F4D007A8FFF73EF904A8FFF7A6
:109610003BF901A8FFF738F920460BB0BDE8F08F01
:10962000CB46B34509D059465046FEF730FF0BF103
:10963000140B04460028F4D0E5E70AF1140AD4E735
:109640000024E0E70124E4E713B50B460246D0E925
:1096500000016C4684E8030093E8030082E80300FD
:1096600094E8030083E8030002B010BDF0B504469F
:1096700089B0164600F118070D4600293AD000239C
:1096800008200293FBF715FA08B1C0E900561A4BFF
:1096900003931A4B00900293002504A9684606958F
:1096A000FFF7D2FF029B069A02923946079A069369
:1096B00004A8039B07930392FFF7C6FF069B226A49
:1096C0002362079B069204A8626A63620792FDF711
:1096D000ADFF6846FDF7AAFF04F12800FEF71AFE69
:1096E0002A4621460648FEF74DF80028A8BF6069C3
:1096F00009B0F0BD0291CFE7C3820B00D5820B0009
:10970000B3970B0010B5A0B003A8CDE90021FFF777
:109710008AF8DDE9002103A8FFF7A8FF044603A8A3
:10972000FFF7B9F8204620B010BD8842F8B50446CE
:109730000D46164614D9904213D2A2F12406751A8A
:10974000A1F124072C44B74218D01CB13146204661
:10975000FFF730FB3046FFF75CF8243E243CF2E78D
:109760000CD0B5420AD01CB129462046FFF722FB97
:109770002846FFF74EF824352434F2E7F8BDF8B553
:109780000E1E054613DD242707FB06F0FEF7A4FA9C
:10979000044658B1D5E9001207FB0212FFF7C5FFD6
:1097A0002868FEF7A1FA2C60AE600120F8BD002405
:1097B000F6E72DE9F0439DB001AD064628460C467C
:1097C000FEF721FE03A8FFF7D0FB06A8FFF7CDFBAD
:1097D00030697169F28913AB03C385E803003378FC
:1097E000B1688DF8243006A8FFF733FBB2897168A1
:1097F00003A8FFF72EFB94F968307F2B13AF03D03B
:109800009DF924209A425CDB94F969307F2B03D0C8
:109810009DF924209A4254DC04F150013846FFF7A8
:1098200091F9149B002B52DD139E06EBC309B14541
:1098300050D030462946FEF7D2FD08368046002833
:10984000F5D01398FEF750FAB8F1000F39D0294639
:109850002046FFF73AF9A0B329462046FFF79BFEC2
:10986000064670B304F15C013846FFF7B6F9149B65
:10987000002B12DD06A8FEF7E5FE804603A8FEF7E2
:10988000E1FEDDE9133203EB42029A4225D033F8C0
:10989000021B884501D08842F7D11398FEF724FABD
:1098A0007EB129462046FFF7CDF950B1236AB3B106
:1098B0006369139501336361636A394604F11800E3
:1098C00098472846FEF7A5FF1DB0BDE8F0834FF08E
:1098D0000108B6E74FF00008B3E70026DDE7D4F84B
:1098E0003080B8F1000F07D0636901336361294606
:1098F000636B04F12800E3E7D4F80CC0BCF1000F5F
:1099000025D063692269013393426361D9D8242247
:1099100053432A4603CA243B0CEB03064CF80300CE
:10992000716006F1080003A9FFF75BFA06A906F1CA
:109930001400FFF756FA9DF9243086F82030D4E958
:1099400004329A42BDD34046FDF724FFB9E795E8BB
:1099500003000DF1280888E8030003A90CA8FFF70D
:109960000CFA06A90FA8FFF708FA9DF824308DF825
:109970004830414638466668FFF71CFAD4E90113BF
:10998000994210DA23686168242202FB063606F148
:10999000240002FB01323146FFF7C7FE86B9636837
:1099A0000133636005E001312046FFF7E8FE00283F
:1099B000E8D13846FEF72DFF4046FEF72AFF80E744
:1099C00039463046FFF7F6F9E9E700000248002380
:1099D0000360FDF71DBF00BFA4E60320F8B50646EF
:1099E0000D468F180024BD420CD0336815F8011BBA
:1099F0009B6830469847031E01DB1C44F3E7002CAC
:109A000008BF1C462046F8BD13B50446084659B1A8
:109A10000191FAF7F3FF23680199DB6802462046BB
:109A200002B0BDE81040184702B010BD08B5FFF7FE
:109A3000EBFF08BD03689B68184738B50D21054644
:109A4000FFF7F8FF0A2104462846FFF7F3FF2044FA
:109A500038BD38B50546FFF7D7FF04462846FFF75F
:109A6000ECFF204438BD30B58BB00023012A8DF8BF
:109A7000243098BF0A2209AC0D46B1FBF2F101FB7C
:109A8000125303F0FF03092B94BF30333733DBB29B
:109A9000AA4204F8013DEFD92146FFF7B5FF0BB00C
:109AA00030BD2DE9F04186B000AF05460E46381DA9
:109AB000142114463B60FEF72FF913280ED8391DE8
:109AC0002846FFF7A1FF04461EB12846FFF7B5FF61
:109AD000044420461837BD46BDE8F08100F1080374
