:02000002B0004C
:1040000000400B0016DD0B00000006000C0005024E
:084010000401B41400000000DB
:04401800D4C50B0000
:1040200081F0004102E000BF83F0004330B54FEA69
:1040300041044FEA430594EA050F08BF90EA020FD6
:104040001FBF54EA000C55EA020C7FEA645C7FEA69
:10405000655C00F0E2804FEA5454D4EB5555B8BF8C
:104060006D420CDD2C4480EA020281EA030382EAFD
:10407000000083EA010180EA020281EA0303362D8F
:1040800088BF30BD11F0004F4FEA01314FF4801C62
:104090004CEA113102D0404261EB410113F0004F74
:1040A0004FEA03334CEA133302D0524263EB43032B
:1040B00094EA050F00F0A780A4F10104D5F1200EC9
:1040C0000DDB02FA0EFC22FA05F2801841F1000124
:1040D00003FA0EF2801843FA05F359410EE0A5F1F8
:1040E00020050EF1200E012A03FA0EFC28BF4CF029
:1040F000020C43FA05F3C01851EBE37101F00045DF
:1041000007D54FF0000EDCF1000C7EEB00006EEBEB
:104110000101B1F5801F1BD3B1F5001F0CD3490875
:104120005FEA30004FEA3C0C04F101044FEA4452CC
:1041300012F5800F80F09A80BCF1004F08BF5FEA53
:10414000500C50F1000041EB045141EA050130BD33
:104150005FEA4C0C404141EB0101013C28BFB1F545
:10416000801FE9D291F0000F04BF01460020B1FA90
:1041700081F308BF2033A3F10B03B3F120020CDA63
:104180000C3208DD02F1140CC2F10C0201FA0CF041
:1041900021FA02F10CE002F11402D8BFC2F1200CA6
:1041A00001FA02F120FA0CFCDCBF41EA0C0190405C
:1041B000E41AA2BF01EB0451294330BD6FEA0404A5
:1041C0001F3C1CDA0C340EDC04F11404C4F1200290
:1041D00020FA04F001FA02F340EA030021FA04F3A2
:1041E00045EA030130BDC4F10C04C4F1200220FAF9
:1041F00002F001FA04F340EA0300294630BD21FA37
:1042000004F0294630BD94F0000F83F4801306BFFC
:1042100081F480110134013D4EE77FEA645C18BFF0
:104220007FEA655C29D094EA050F08BF90EA020F87
:1042300005D054EA000C04BF1946104630BD91EA7F
:10424000030F1EBF0021002030BD5FEA545C05D182
:104250004000494128BF41F0004130BD14F58004C1
:104260003CBF01F5801130BD01F0004545F0FE4135
:1042700041F470014FF0000030BD7FEA645C1ABF6A
:10428000194610467FEA655C1CBF0B46024650EAA1
:10429000013406BF52EA033591EA030F41F40021CD
:1042A00030BD00BF90F0000F04BF0021704730B553
:1042B0004FF4806404F132044FF000054FF0000128
:1042C00050E700BF90F0000F04BF0021704730B5E9
:1042D0004FF4806404F1320410F0004548BF4042BE
:1042E0004FF000013EE700BF42004FEAE2014FEA13
:1042F00031014FEA02701FBF12F07F4393F07F4FEE
:1043000081F06051704732F07F4208BF704793F0F0
:104310007F4F04BF41F40021704730B54FF4607403
:1043200001F0004521F000411CE700BF50EA010206
:1043300008BF704730B54FF000050AE050EA0102AF
:1043400008BF704730B511F0004502D5404261EB1F
:1043500041014FF4806404F132045FEA915C3FF460
:10436000D8AE4FF003025FEADC0C18BF03325FEAFD
:10437000DC0C18BF033202EBDC02C2F1200300FAAE
:1043800003FC20FA02F001FA03FE40EA0E0021FAD3
:1043900002F11444BDE600BF70B54FF0FF0C4CF4C1
:1043A000E06C1CEA11541DBF1CEA135594EA0C0F73
:1043B00095EA0C0F00F0DEF82C4481EA030621EAAE
:1043C0004C5123EA4C5350EA013518BF52EA0335E9
:1043D00041F4801143F4801338D0A0FB02CE4FF09B
:1043E0000005E1FB02E506F00042E0FB03E54FF0CB
:1043F0000006E1FB03569CF0000F18BF4EF0010EC3
:10440000A4F1FF04B6F5007F64F5407404D25FEABE
:104410004E0E6D4146EB060642EAC62141EA555171
:104420004FEAC52040EA5E504FEACE2EB4F1FD0CB3
:1044300088BFBCF5E06F1ED8BEF1004F08BF5FEA31
:10444000500E50F1000041EB045170BD06F00046E3
:1044500046EA010140EA020081EA0301B4EB5C0490
:10446000C2BFD4EB0C0541EA045170BD41F4801188
:104470004FF0000E013C00F3AB8014F1360FDEBFAD
:10448000002001F0004170BDC4F10004203C35DA89
:104490000C341BDC04F11404C4F1200500FA05F30C
:1044A00020FA04F001FA05F240EA020001F00042AD
:1044B00021F0004110EBD37021FA04F642EB060123
:1044C0005EEA430E08BF20EAD37070BDC4F10C044D
:1044D000C4F1200500FA04F320FA05F001FA04F211
:1044E00040EA020001F0004110EBD37041F10001FD
:1044F0005EEA430E08BF20EAD37070BDC4F1200508
:1045000000FA05F24EEA020E20FA04F301FA05F26F
:1045100043EA020321FA04F001F0004121FA04F217
:1045200020EA020000EBD3705EEA430E08BF20EAE7
:10453000D37070BD94F0000F0FD101F00046400021
:1045400041EB010111F4801F08BF013CF7D041EAA3
:10455000060195F0000F18BF704703F000465200A7
:1045600043EB030313F4801F08BF013DF7D043EA78
:104570000603704794EA0C0F0CEA135518BF95EA2E
:104580000C0F0CD050EA410618BF52EA4306D1D1B5
:1045900081EA030101F000414FF0000070BD50EAD4
:1045A000410606BF1046194652EA430619D094EA5E
:1045B0000C0F02D150EA013613D195EA0C0F05D148
:1045C00052EA03361CBF104619460AD181EA03019C
:1045D00001F0004141F0FE4141F470014FF0000054
:1045E00070BD41F0FE4141F4780170BD70B54FF0EF
:1045F000FF0C4CF4E06C1CEA11541DBF1CEA13556F
:1046000094EA0C0F95EA0C0F00F0A7F8A4EB050450
:1046100081EA030E52EA03354FEA013100F0888047
:104620004FEA03334FF0805545EA131343EA126310
:104630004FEA022245EA111545EA10654FEA0026C5
:104640000EF000419D4208BF964244F1FD0404F57E
:10465000407402D25B084FEA3202B61A65EB0305DA
:104660005B084FEA32024FF480104FF4002CB6EB97
:10467000020E75EB030E22BFB61A754640EA0C0017
:104680005B084FEA3202B6EB020E75EB030E22BF57
:10469000B61A754640EA5C005B084FEA3202B6EB98
:1046A000020E75EB030E22BFB61A754640EA9C0057
:1046B0005B084FEA3202B6EB020E75EB030E22BF27
:1046C000B61A754640EADC0055EA060E18D04FEAE5
:1046D000051545EA16754FEA06164FEAC30343EA85
:1046E00052734FEAC2025FEA1C1CC0D111F4801F52
:1046F0000BD141EA00014FF000004FF0004CB6E74B
:1047000011F4801F04BF01430020B4F1FD0C88BFE9
:10471000BCF5E06F3FF6AFAEB5EB030C04BFB6EBF4
:10472000020C5FEA500C50F1000041EB045170BDE7
:104730000EF0004E4EEA113114EB5C04C2BFD4EB14
:104740000C0541EA045170BD41F480114FF0000E98
:10475000013C90E645EA060E8DE60CEA135594EA14
:104760000C0F08BF95EA0C0F3FF43BAF94EA0C0F17
:104770000AD150EA01347FF434AF95EA0C0F7FF48C
:1047800025AF104619462CE795EA0C0F06D152EAE0
:1047900003353FF4FDAE1046194622E750EA4106C4
:1047A00018BF52EA43067FF4C5AE50EA41047FF4D5
:1047B0000DAF52EA43057FF4EBAE12E74FF0FF3C3A
:1047C00006E000BF4FF0010C02E000BF4FF0010C0B
:1047D0004DF804CD4FEA410C7FEA6C5C4FEA430C84
:1047E00018BF7FEA6C5C1BD001B050EA410C0CBFD3
:1047F00052EA430C91EA030F02BF90EA020F002035
:10480000704710F1000F91EA030F58BF994208BF9B
:1048100090422CBFD8176FEAE37040F00100704758
:104820004FEA410C7FEA6C5C02D150EA013C07D1AF
:104830004FEA430C7FEA6C5CD6D152EA033CD3D0FA
:104840005DF8040B704700BF8446104662468C46F4
:104850001946634600E000BF01B5FFF7B7FF002827
:1048600048BF10F1000F01BD4DF808EDFFF7F4FF50
:104870000CBF012000205DF808FB00BF4DF808EDDB
:10488000FFF7EAFF34BF012000205DF808FB00BFFE
:104890004DF808EDFFF7E0FF94BF012000205DF820
:1048A00008FB00BF4DF808EDFFF7CEFF94BF0120D5
:1048B00000205DF808FB00BF4DF808EDFFF7C4FFCE
:1048C00034BF012000205DF808FB00BF4A0011D270
:1048D00012F5001211D20DD56FF47873B3EB62525A
:1048E0000ED44FEAC12343F0004343EA505323FA66
:1048F00002F070474FF00000704750EA013002D1DB
:104900004FF0FF3070474FF0000070474FEA410210
:10491000B2F1E04324BFB3F5001CDCF1FE5C0DD91D
:1049200001F0004C4FEAC0024CEA5070B2F1004F67
:1049300040EB830008BF20F00100704711F0804F6A
:1049400021D113F13872BCBF01F00040704741F42F
:1049500080114FEA5252C2F11802C2F1200C10FA33
:104960000CF320FA02F018BF40F001004FEAC12317
:104970004FEAD32303FA0CFC40EA0C0023FA02F3BB
:104980004FEA4303CCE77FEA625307D150EA013391
:104990001EBF4FF0FE4040F44000704701F0004061
:1049A00040F0FE4040F40000704700BFD0B50C4B13
:1049B000002206460F46FFF7EFFCFFF787FF04468D
:1049C000FFF770FC074B0022FFF7E6FC02460B46A0
:1049D00030463946FFF728FBFFF778FF2146D0BD68
:1049E0000000F03D0000F04110F8012B11F8013BF0
:1049F000012A28BF9A42F7D0D01A7047034613F80D
:104A0000012B002AFBD1181A0138704738B5002253
:104A1000002304460D46FFF731FF28B920462946FA
:104A2000BDE83840FFF7C2BF204605F10041FFF75F
:104A3000BDFF404261EB410138BD00BF09480A4952
:104A4000884208B505D0094A824202D0121A05F000
:104A50006FFD0748074A0021121A05F091FD014831
:104A600008BD00BF68E30320FCDA0B0054E5032017
:104A700054E50320F0E7032070B5074E074C04F01F
:104A800087FBA41BA4080025AC4200D170BD56F8DA
:104A9000043B98470135F7E7B4DA0B00D8DA0B008E
:104AA00000F0B8B808B500F027F9BDE8084004F0F8
:104AB00027BB02F08FBA02F08DBA02F093BA02F06F
:104AC00091BA000008B5034A03490C2002F0BEF970
:104AD000FEE700BF656A0B00E8C50B000078B0FA7E
:104AE00080F0400970470123037070477047000051
:104AF000B0B52DED028B02F1080388B023F0070357
:104B000000AFADEB030D14460546684605F010FDF9
:104B10000023694638460DF8043002F0F0FB3846B1
:104B200002F06AFC294607F11000B0EE408A02F05C
:104B3000E6FB0D4907F1100002F049FCFDEEC87AD2
:104B400017EE903A68B1094A136007F1100002F0BD
:104B50008BFB384602F088FB2037BD46BDEC028B4C
:104B6000B0BD034AF0E700BF54E5032068E303202B
:104B70006CE303200A4B10B50446036003F040FCCD
:104B8000214603F078FE04F025FC04F017FC2046D3
:104B9000044B40F8043B03F009FD204610BD00BF64
:104BA00094C60B007CC60B0010B50446FFF7E2FF6D
:104BB00020462421FFF783FF204610BD0EB400B528
:104BC0008CB00DAA4FF0200C52F8041B0392CDE9D3
:104BD00000120023016804AA1E20CDE904C302F0DC
:104BE00045F90CB05DF804EB03B0704708B5024915
:104BF0000248FFF7E3FF08BDCFD20B00B8E6032061
:104C000008B502490248FFF7D9FF08BDFDC50B00F2
:104C1000B8E6032070B52848284C90B000F020FE7C
:104C2000274B2848196801F0D9FE274B25481968F9
:104C300001F0D4FE02F0F2FD02F00CFE02F0EEFDF7
:104C40002249002203F09BF902F0E8FD20490022EE
:104C500003F076F903A802F0BDFF0FCC06AD0FC537
:104C600006AD0FCD26680BAC0FC40BA8266002F072
:104C7000B5FC04460BA8B4B902F0B2FC0094ADF840
:104C80000A0002230DF10A02032103A802F097FF94
:104C900002F0C4FD002203A902F038FE039802F0DE
:104CA000A1F910B070BD02F09DFC002300930246F4
:104CB00010230721E9E700BFD4E5032068E60320BD
:104CC00054E5032074E5032064E50320ED4B0B005D
:104CD000014C0B0010B5074C204600F0C7FF012126
:104CE000204600F06EFD00224FF00113C4E90423BA
:104CF00010BD00BFD4E503201FB5264800F0D9FD44
:104D0000254801F0DBFB60B3234801F01FFDFFF7EE
:104D1000E1FF22491F4803F094F9214B1C68002C45
:104D200034DA2D211B4803F07DF961420A2219482B
:104D300003F091F91B49174803F070F91A4B1C68EE
:104D4000002C25DA2D21134803F06CF961420A2268
:104D5000104803F080F90F4804B0BDE8104001F09E
:104D6000F3B9684602F026F900990B4801F096FC69
:104D7000684602F079FA0D4B0748196801F02EFEDB
:104D80000B4B0548196801F029FEC0E72146CDE725
:104D90002146DCE7D4E5032074E503200AC60B00B6
:104DA00068E303201CC60B006CE3032054E50320DA
:104DB00064E5032070B5D0E900531426044606FBD1
:104DC0000356AE4204D0284602F04EFA1435F8E7F6
:104DD000206802F007F9204670BD8842F8B5044605
:104DE0000D46164616D9904215D2A2F11406751A30
:104DF000A1F114072C44B7421CD02CB131462046F7
:104E000002F0AEFA337C2374304602F02DFA143EE1
:104E1000143CF0E70ED0B5420CD02CB12946204608
:104E200002F09EFA2B7C2374284602F01DFA1435FA
:104E30001434F0E7F8BD2DE9F0410023C0E9003358
:104E400083604F689F4204460E4623DD4FF01408EE
:104E500008FB07F002F0BEF80546D8B1D4E900120D
:104E600008FB0212FFF7B9FF206802F0BBF82560CB
:104E7000A760D6E9007308FB0378B84508D0394627
:104E8000284602F087FA3B7C2B7414371435F4E77C
:104E9000736863602046BDE8F081000070B58EB095
:104EA00000240021012002F009F840F25B72284B37
:104EB00000942849284801F025FA2849284802F09A
:104EC0001EFA2849284802F01AFA0721274800F05C
:104ED00099FCCDE90244049404F07CFA244C054684
:104EE00002A905A8FFF7A7FF264605A908A8FFF70E
:104EF000A2FF204B46F8043B08A90BA8FFF79BFF35
:104F00000BAA1E21304603F099FD0BA8FFF752FFB4
:104F100008A8FFF74FFF184B2360256205A8FFF78D
:104F200049FF164B236004F055FA4FF4165104F074
:104F300041FA03F065FA214603F056FC02A8FFF798
:104F400039FF0F490F480EB0BDE8704002F0BCBBFE
:104F5000F14A0B0020C60B0074E503202FC60B009E
:104F600054E503203FC60B0064E50320D4E503208D
:104F700044E603207CC60B0090D30B0094C60B00C4
:104F80004FC60B0068E60320704710B51021044699
:104F9000FFF795FD204610BD0EB403B503AB00210D
:104FA00053F8042B019303F074F802B05DF804EB9E
:104FB00003B0704773B5044608462279A36832B13E
:104FC000A3B90B4902B0BDE8704003F027B8094A05
:104FD000267B094D0949647B012E18BF2946CDE97E
:104FE00000140749FFF7D8FF02B070BD054AEFE78C
:104FF000B5C60B005AD30B00B1C60B00ADC60B00F3
:10500000CBC60B00A4C60B002DE9F04F85B01F46A0
:10501000BDF93880BDF83C30A8EB0209A7EB010AC6
:10502000B9F1000FB8BFC9F10009BAF1000FB8BF5C
:10503000CAF1000AD14583460C46154604DD3A46BE
:105040002C4647460D469046BC4205DD2A4645465D
:10505000904622463C4617463E1BB2B20092A8EB51
:10506000050282EAE271A1EBE271C6F3C03202FAF4
:1050700086F64545B4BF01224FF0FF32019176100C
:105080000292BC421CDCDBF800200393D145D2F82D
:105090001880C7BF294622462A4621465846C0479F
:1050A000019A039BB61AB1B236B2002E05DA029A03
:1050B0001544009A56182DB236B2013424B2E0E7F6
:1050C00005B0BDE8F08F704710B404682469A446A9
:1050D0005DF8044B604730B40468BDF80850029591
:1050E000A46BA44630BC604730B40468BDF80850D7
:1050F0000295E46BA44630BC604770B4BDF90C5017
:10510000BDF810600468CDE90356246CA44670BC59
:1051100060472DE9F3411C460368BDF820805B69B8
:1051200005461646013C34440F4624B298472B6886
:10513000CDF8048000949C6A28463B4632463946A6
:10514000A0472B68DB6A284602B0BDE8F04118474B
:105150002DE9F3411D460368BDF820805B690446D4
:1051600017460E469847CDE9007822686B1E3344F7
:10517000956A20461BB23A463146A8472368DB6A47
:10518000204602B0BDE8F04118472DE9F3471E461E
:105190000368BDF928905B69BDF82C800C46054674
:1051A000174698472644B4422B680BDACDF80080A6
:1051B000D3F820A021464B463A4628460134D04732
:1051C00024B2F0E7DB6A284602B0BDE8F047184792
:1051D00013B502680191B0F90E100091146CB0F98A
:1051E0000C3000221146A04702B010BD2DE9F74354
:1051F00099421646BDF92870BDF82C900268804689
:105200000D461C4613D1BE42C8BF3346CDF8289088
:10521000C4BF3E461F467B1C946B9B1B1BB2324691
:1052200029464046A44603B0BDE8F0436047BE426D
:105230000AD19942C2BF0B4625461C46631CCDF8D5
:105240002890D46B5B1BE9E753699847CDE9007957
:10525000D8F8003040469F6A324623462946B84770
:10526000D8F80030DB6A404603B0BDE8F043184789
:105270002DE9F3471D460368BDF82C805B69BDF935
:10528000289004460F46164698472368CDF80080BC
:10529000D3F824A032462B4639462046D04723680F
:1052A000CDF8008009F1FF323244D3F824A039460A
:1052B0002B46204612B2D0472368CDF80080D3F8A1
:1052C00020A032464B4639462046D0476B1ED9199E
:1052D0002368CDF800801D6A20464B46324609B24D
:1052E000A8472368DB6A204602B0BDE8F0471847AC
:1052F000704701F00303B0F90A208376C907B0F9BB
:10530000083059BF8381C2818281C3817047000008
:1053100030B54281C281074A074D01810024818155
:105320004FF0FF31C0E90512446005600461047765
:10533000046230BD01010001F0CB0B002DE9F04FFC
:1053400089B0CDE902120268BDF948800493BDF925
:105350004C3052690593BDF850A00446904718F1AF
:1053600007024FF0000648BF08F10E024FEAE20BB9
:1053700001963546039B019ABDF904109A18059BC6
:105380008B4212B227DD049B33444FF00009069391
:105390000FFA89F080451FFA89F117DD4F0705BF25
:1053A000069BC0106D001D5C18BFEDB22B060AD520
:1053B000029B206807921944836909B21F46204660
:1053C0005346B847079A09F10109E1E7019B013308
:1053D00001935E44CEE72368DB6A204609B0BDE84E
:1053E000F04F18472DE9F04F2DED028B91B0164686
:1053F000026ABDF874809DF878509DF87C40039156
:105400001F46BDF8703004938346002A40F0C580E3
:10541000B0F90C308B4240F34C81B0F90E30B342FE
:1054200040F34781062313FB0513002B40F3418112
:1054300006EBC403002B40F33C81037F1BB9AF2F65
:1054400084BF0137FFB2DBF8003058465B699847EC
:105450000522099200220592984A07EB8703D31888
:105460000C93B3B20693059A0C9B9B5C0793ABB26B
:105470000B93BDF80C300893039B02FB05F919FA56
:1054800083F90FFA89F308EE103A08230A93039B75
:1054900002EB030A4FF000090FFA8AFA079ADBF8C9
:1054A0000030D20752D5012D1FFA89F23ED1012CCE
:1054B0003CD19B6906991F46049B0A4412B251468F
:1054C0005846B84709F101034FFA83F9079B5B0877
:1054D00007930A9B013B13F0FF030A93DED1059F5C
:1054E00001377BB20593099B013B13F0FF0309933E
:1054F000B9D1049B43450FD0012DDBF800303BD1DF
:10550000012C39D10899CDF8008005311C6A32464A
:10551000082309B25846A047DBF80030DB6A58463A
:1055200011B0BDEC028BBDE8F04F1847069914FB93
:1055300002F20A44049901910094DB6918EE101AF2
:105540001F4612B22B465846B847BBE7049A42455D
:10555000B8D0012D1FFA89F207D1012C05D19B6922
:1055600006991F460A444346A8E70699CDF80480E9
:1055700014FB02F20A44DFE70B9ACDF8048002EB39
:105580008201089AE4000A4411460094DC6932461C
:105590002B4609B25846A047BEE7137A51681268F5
:1055A0000B92FF1AFFB201EBC70331F837200692C6
:1055B0009A780992DA780C92012D93F9052093F9E3
:1055C00006A00A9201D8012C57D9BDF928300893BA
:1055D0000FFA8AF30793DBF8003058465B69984767
:1055E000B3B24FF000080E931AFA86F3C14647464D
:1055F0000F930C9B9F428FD2079B0E9A3B4403FB59
:105600000423002205920F9A1BB202EB070A08EE50
:10561000103A0FFA8AFA4346099A0599914241D203
:105620005A1CD2B25B070D9207D1069B06990B9AC2
:1056300001339BB212F80190069319F0800F12D03B
:10564000012DDBF80030BDF80C101AD1012C18D157
:105650000A9A9B691144059A11441E465246049BBE
:1056600009B25846B047059E0136F3B24FEA4909E0
:1056700005935FFA89F90D9BCEE70023CDE9073347
:10568000A9E70598089A024402FB0511049ACDE99E
:105690000042DB6918EE102A1E4609B22B46584616
:1056A000B047E0E7099B013798445FFA88F8FFB2FA
:1056B0009FE711B0BDEC028BBDE8F08FE8C60B0090
:1056C000F0B5026A85B004460B46002A34D10A2997
:1056D00008D1438A0282427E03EBC2036382012027
:1056E00005B0F0BD0D29FAD0E17E007E657E71B176
:1056F000B4F91060062111FB0061B4F90C60B142ED
:10570000C1BFB4F91210228201EBC5026282E28AA3
:105710000192A28A0092CDE90205B4F91220B4F9EF
:1057200010102046FFF75EFE237E228A03EB430320
:1057300002EB43032382D2E70A2907D10023038225
:10574000417E927A438A01FB0233C7E70D29C6D016
:10575000157AA942C3D3517A9942C0D351685D1BCF
:10576000EDB201EBC505A87828B3E97819B3E17E5D
:10577000267E677E91B195F905100844B4F91010A2
:1057800006FB0011B4F90C00814207DD00202082E5
:10579000B4F91210927A02FB07126282E28A019235
:1057A000A28A0092CDE90267B4F91220B4F9101070
:1057B0002046FFF717FE2979227E238A01FB023358
:1057C000B8E7012938BF0121017641767047000012
:1057D00010B5064B03600446006D08B101F08EF968
:1057E000204600F0D1F8204610BD00BF48CC0B0089
:1057F00010B50446FFF7ECFF20467021FFF75FF974
:10580000204610BD30B585B004460D4604F030FD8D
:10581000104A1149CDE901214FF0FF3280210346A2
:1058200000922046202200F027F90C4B2360002331
:10583000C4E9143504F1580000F054F804F1600094
:1058400000F050F804F1680000F04CF8204605B074
:1058500030BD00BF801A0600A086010048CC0B00B6
:1058600013B50446503001F041F9636DD90705D5F1
:105870000222042104F1580000F048F8636D9A07F1
:1058800005D50022032104F1600000F03FF8636DAC
:105890005B0705D50222114604F1680000F036F8D6
:1058A000012300933C220221204600F0EDF902B0D2
:1058B00010BD10B5436DD907044602D5583000F02D
:1058C00032F8636D9A0703D504F1600000F02BF8FD
:1058D000636D5B0705D504F16800BDE8104000F07A
:1058E00022B810BD00210A22C0E90012704700232F
:1058F00010B50446C171837188B204F04BFC08B145
:105900000323A37101F0B6F8206010BD38B50C4632
:1059100005461146A0B204F013FC21462846BDE816
:105920003840FFF7E4BF38B50446C07904F032FCD4
:10593000A579003825F0080318BF0120C5F34005FC
:105940008542A3710AD001F095F8A379206083F015
:105950000203A371A079C0F3C00038BD01F08AF83A
:105960002368C01AA3889842F4D3A37903F00103F3
:10597000AB42EFD001F07EF8A379206083F0010301
:1059800043F00803E5E7000010B5044B036004464C
:10599000C06A08B101F026FB204610BD54D10B00AF
:1059A00010B50446FFF7F0FF20465021FFF787F8B7
:1059B000204610BD002910B54BDBB0F90C408C42DD
:1059C00047DD002A45DBB0F90E40944241DD847E7C
:1059D000022C1FD0032C26D0012C04D10489D243E1
:1059E00014440A4621B2012B23D0022B32D083BBB0
:1059F000002A13460489C06AB8BFD31DDB1013FB0D
:105A0000041102F0070201239340425C22EA0302E0
:105A100042541EE00489013C611A4489D243224465
:105A200009B212B2DFE74489013C641A114622B27E
:105A3000D9E7002A04891346B8BFD31DDB1013FB36
:105A40000411C36A02F0070001228240585C02433D
:105A50005A5410BD002A13460489C06AB8BFD31D2A
:105A6000DB1013FB041102F00702012303FA02F218
:105A7000435C5A40CCE7000070B504461D46002642
:105A8000FFF746FC114B2360666215B904F0F0FB8A
:105A90000546FF2384F8333084F836309DF9103002
:105AA00084F837300A4BA363012384F83C30059B0C
:105AB000A3644FF6FF72069BA286C4E90A562664C9
:105AC000A4F84460E364204670BD00BF54D10B00CD
:105AD000A0CC0B00F8B50446806A0D4690B194F94D
:105AE000301003F051FDA06A036800219B689847BD
:105AF000A06A036829469B689847A06ABDE8F840F9
:105B000003F049BD94F93530014698B204F029FB01
:105B1000606A20B12946BDE8F84001F08DBB082637
:105B2000802794F9330005EA070180B204F019FBDD
:105B300094F93400012180B204F013FB94F934008D
:105B4000002180B204F00DFB013E4FEA5707E8D177
:105B5000F8BD38B50446806A0D4680B1A16C03F0EB
:105B600005FD002D204614BFA721A621FFF7B2FF97
:105B7000A06A88B1E16CBDE8384003F0F7BC606A08
:105B800018B104F1380101F0E9FA94F93600002166
:105B900080B204F0E6FAE4E794F93600012180B21D
:105BA00004F0DFFA606A18B1BDE8384001F0BCBA11
:105BB00038BD2DE9F8430446806A0D468F1840B37E
:105BC00094F9301003F0E0FCA06A036800219B68A0
:105BD00098470126AF42A06A17D01F2E0CD903F0B8
:105BE000DAFC94F93010A06A03F0CEFCA06A0368D6
:105BF00000219B6898470126A06A15F8011B0368DD
:105C000001369B689847F6B2E4E7BDE8F84303F035
:105C1000C2BC94F93530014698B204F0A2FABD42F4
:105C200022D0606A15F8019B18B1494601F004FBC7
:105C3000F5E708264FF0800894F9330009EA0801D7
:105C400080B204F08EFA94F93400012180B204F09D
:105C500088FA94F93400002180B204F082FA013EFF
:105C60004FEA5808E8D1DAE7BDE8F883B0F90A301E
:105C7000DA1D48BF03F10E02B0F90830C06AD21035
:105C80005A43002104F07CBC2DE9FF411E46C36A43
:105C90009DF8288004460F461546C3B12046FFF7FD
:105CA000E5FFB4F90A00B4F90810202821DC20230C
:105CB00001222038CDE9013200EBD0707323733913
:105CC000009301EBD171894B40F34F0221E0B0F911
:105CD0000A30D81D48BF03F10E00B4F90830C010D7
:105CE000584301F077F9E0620028D7D104B0BDE84D
:105CF000F0814038C0F3C03202FA80F24023012024
:105D0000CDE90130522352390093794B01EBD17127
:105D10005210204641F34F01FFF710FBA06A84F8B0
:105D20003170002878D0002D74D1B4F90A30202BBE
:105D30000CBF3C253D2584F83050B8F1000F01D050
:105D400003F018FCFEB194F9370000281BDB012199
:105D500080B204F0F5F994F93700012180B204F023
:105D600000FA012003F08AF994F93700002180B28B
:105D700004F0F7F90A2003F081F994F937000121C2
:105D800080B204F0EEF9A06A002874D0A16C03F090
:105D9000EDFB042257492046FFF70BFF61890139CB
:105DA000C9B22046FFF796FE534904222046FFF76A
:105DB00000FF94F93130012B0CBF10211421204633
:105DC000FFF788FE04224D492046FFF7F2FEA36844
:105DD0004B4A93425CD14B4904222046FFF7E9FE2F
:105DE000D9212046FFF776FE94F93130012B0CBF04
:105DF0002221F1212046FFF76DFE2046424906226E
:105E0000FFF7D7FEA06A002863D0E16C03F0AEFB79
:105E100001206BE76DB28EE794F93500012180B265
:105E200004F08EF994F93600012180B204F088F96B
:105E300094F93600012180B204F093F9656A3DB10E
:105E4000B8F1000F3FF47EAF284601F059F979E729
:105E500094F93300012180B204F072F994F934000E
:105E6000012180B204F06CF994F93400294680B223
:105E700004F077F966E7606A18B104F1380101F0BF
:105E80006DF994F93600002180B204F06AF980E7D8
:105E90001E4A93420ED11E4903222046FFF789FE77
:105EA00094F93130012B0CBF9F21CF212046FFF701
:105EB00011FE95E7174A934292D1174903222046D3
:105EC000FFF777FE94F93130012B0CBF1021AF2181
:105ED000ECE794F93600012180B204F042F9606ADF
:105EE000002895D001F020F992E700BF6CCF0B009D
:105EF000ACCC0B00B4D10B00B8D10B00BCD10B0063
:105F000080002000C6D10B00C0D10B0080004000F3
:105F1000CAD10B0060001000CDD10B0070B5002A73
:105F2000BDF810503DDBB0F90A40944239DD00293C
:105F3000BEBF5B181BB20021B0F90840CE18A642C4
:105F4000C4BF631A1BB2002B2BDDC06AD61014FB32
:105F50000611014402F0070001228240012DD2B255
:105F600016D0022D0BD0E5B9D243D2B20B449942E0
:105F700017D011F8010B104001F8010CF7E70B44A2
:105F800099420ED011F8010B504001F8010CF7E7CF
:105F90000B44994205D011F8010B104301F8010C94
:105FA000F7E770BDF0B50029BDF8145076DBB0F905
:105FB0000860B14272DA002ABEBF9B181BB20022F1
:105FC000B0F90A40D718A742C4BFA31A1BB2002BCE
:105FD00064DDC2F3C404C76A16FB041612F007029C
:105FE000DBB207EB060423D0C2F10802D2B22D497E
:105FF00093423CBF4FF0FF0CA2EB030E895C3CBF09
:106000004CFA0EFC0CEA0101012D07D0022D2ED016
:106010004DB917F806C02CEA010103E017F806C0D5
:1060200041EA0C01B955934238D3B0F908100C4439
:106030009A1AD2B2072A0ED9022D1DD11346217801
:10604000C9432170083BB0F90810DBB2072B0C44A0
:10605000F5D802F007020AB3134B012D9B5C1AD04E
:10606000022D1CD0D5B9227822EA030315E017F8D7
:1060700006C081EA0C01D5E7291E18BF012149425B
:10608000C9B213462170083BB0F90860DBB2072B98
:106090003444F7D8DDE7227813432370F0BD22782B
:1060A0005340FAE7A4D10B00ACD10B0070B41446F6
:1060B000827EBDF80C60022A0DD0032A18D0012A76
:1060C00011D10289E443144424B203960A462146BE
:1060D00070BCFFF767BF42890589E4431944144443
:1060E000691A24B209B20396224670BCFFF716BFA4
:1060F00045891944691A09B2E7E730B41446827E2B
:10610000BDF80850022A0DD0032A18D0012A11D157
:10611000E2180489A41A24B202950A46214630BC2A
:10612000FFF7FCBE0289C9431144E2184489A41A4E
:1061300009B224B20295224630BCFFF733BF428930
:10614000C943114409B2E7E72DE9F8430446806AE0
:10615000002842D0A16C03F009FA474905222046E5
:10616000FFF727FD218901392046C9B2FFF7B2FCAC
:10617000B4F90A30DE1D48BF03F10E06D4E90A0562
:106180002389F61013FB06F615FA86F600283AD096
:1061900094F9301003F0F8F9A06A036840219B6875
:1061A00098470127B542A06A24D01F2F0CD903F0CD
:1061B000F2F994F93010A06A03F0E6F9A06A0368D6
:1061C00040219B6898470127A06A15F8011B0368C6
:1061D00001379B689847FFB2E4E7606A18B104F1A1
:1061E000380100F0BBFF94F93600002180B203F0C3
:1061F000B8FFB2E703F0CFF9A06A78B3E16CBDE86D
:10620000F84303F0B3B994F93500012180B203F0EB
:10621000A8FFAE42F0D0606A15F8019B18B149465C
:1062200001F00AF8F5E708274FF0800894F93300E9
:1062300009EA080180B203F094FF94F934000121C7
:1062400080B203F08EFF94F93400002180B203F095
:1062500088FF013F4FEA5808E8D1DAE794F93600A1
:10626000012180B203F07DFF606A18B1BDE8F843F8
:1062700000F05ABFBDE8F883D0D10B0091F85C3034
:1062800010B50446016013B1886D00F03FFC204654
:1062900010BD10B5036893F85C20044612B1986DE8
:1062A00000F03CFC204610BDF8B51F469DF8243098
:1062B00004460D4616462BB1012380F85C30583059
:1062C00000F014FC089B23630023636306B1A664FB
:1062D00025B1294604F1380001F067F8069B2365D3
:1062E000079BE069A4F84C70FF2BB8BFFF23A4F80C
:1062F000543008B1FEF7E1FBB4F85400FEF7DBFBC5
:10630000E061F8BD2DE9FF41044600251746984697
:106310000E4603F0FBFB0D49E56104F1380000F087
:10632000EEFF9DF82830A564CDE90283FF220F23FC
:10633000CDE90032204684F85C503B462A4631467F
:10634000FFF7B2FF204604B0BDE8F0815AD30B003E
:1063500010B50446204603F035FB0028FAD020464D
:1063600003F03EF9C0B210BD2DE9F047054688465E
:10637000FFF7EEFFEB691870EB6993F800A04FF0A0
:1063800001090AF0F00A00274C462846FFF7E0FF13
:106390002646EB69985500F07F0313FB09F31F4471
:1063A00001340306A4B2BFB24FEAC919EDD4631E8B
:1063B000BAF1300F88F800301ED12846FFF7C8FF29
:1063C000EB6918552846FFF7C3FFF41C0236B6B236
:1063D000EB69A4B298550226B6B2BE420ED2284648
:1063E000FFF7B6FFB5F85430A34284BFEB691855E8
:1063F0000134A4B20136EFE70026EDE7B5F85430DA
:10640000A3422CBF20460020BDE8F0872DE9F341D0
:1064100015461E461A4607460023964602A802F075
:106420007F0CBEF17F0F03F10104034488BF4CF0E1
:10643000800CBEF17F0F4FEAD212E4B203F804CC15
:106440001ED8C4F10403C4F10500E954224601A991
:10645000284405EB030804F06BF8721C2244414603
:10646000384603F0A8F8054600F004FB621C786289
:106470003244A8B2131A5842584102B0BDE8F08124
:106480002346CAE70233F0B5054698B20023CE5C36
:106490009CB256B1B5F854C0844503F1010704D944
:1064A000441C16543B46A0B2F1E799B2411A0A4483
:1064B000210A02F8021C02F8013CF0BD38B504467E
:1064C00003F0A2F9002814BF0125002502D12046BF
:1064D00003F0D2FA284638BD2DE9F04788B00446CB
:1064E000DDF840809DF850A0894617461E46FFF70C
:1064F000E5FF0546002840F0CD80214601A8FFF7C2
:10650000BDFEA16C002940F08880B4F84C20A16B3E
:106510002B46204603F0FAF800287AD00123238482
:106520009DF85430E269042B5B4B40F08180186881
:1065300099889B79ADF80C108DF80E300290C2F856
:1065400005009DF80E30BDF80C10A2F80910D372AA
:106550000C23B8F1000F00F081809DF848009DF8F1
:106560004420400140EAC20040F00600C0B2BAF147
:10657000000F01D100F0FD001FB1002E70D140F0DE
:106580008000E269D054226DE169581C12120A544D
:106590009A1CE169206D88540333E269494620461C
:1065A000FFF770FF0346B8F1000F0BD0E2694146D8
:1065B0002046FFF767FFE269139903462046FFF77D
:1065C00061FF034667B1E26939462046FFF75AFF8B
:1065D00003462EB1E26931462046FFF753FF0346DA
:1065E000053BE2699BB210212046FFF70FFF00F048
:1065F00041FAC4E909004FF47A76204603F0E2F943
:1066000088BB00F037FAA36AC01A236D734398421F
:10661000F3D9204603F030FA35E002A802F068FE14
:10662000B4F84C202B4602A9204603F04FF973E73B
:10663000D3F80700D3F80B10DB7B0DF1080CACE8A6
:1066400003008CF8003002AB03CBC2F80500C2F89F
:1066500009109CF8003053730E237AE7022086E776
:1066600040F0C0008DE702A92046FFF77DFE042818
:10667000CFD1E369DE78002ECBD100F0FBF9012504
:10668000A06284F82C6001A8FFF703FE284608B03A
:10669000BDE8F0870025F9E7ACC50B007FB5012305
:1066A0000422CDE904320023CDE90233CDE90033E1
:1066B0001A46FFF711FF07B05DF804FB73B50446F7
:1066C0000E46FFF7FBFE0546C8B1214601A8FFF7BD
:1066D000D5FDE36962221A70E36902225A70E36908
:1066E000320A9A70E369DE70E1690422204602F002
:1066F00062FF051E01A818BF0125FFF7CAFD284645
:1067000002B070BD73B504460E46FFF7D7FE0546CE
:10671000C8B1214601A8FFF7B1FDE36972221A70E2
:10672000E36902225A70E369320A9A70E369DE7003
:10673000E1690422204602F03EFF051E01A818BFB1
:106740000125FFF7A6FD284602B070BD2DE9F04FE8
:106750002DED028B87B000AF0446FFF7AFFE8146F8
:10676000F8B1214607F11400FFF788FD00F082F927
:10677000236D4FF47A725343A26A821A9A420646F4
:1067800003D8626A821A934221D294F82C307BB1EA
:10679000204603F071F94FF0000907F11400FFF7EC
:1067A00078FD48461C37BD46BDEC028BBDE8F08F36
:1067B000E269C0211170E2695370E169022220464A
:1067C00002F0F9FEC4E90966012384F82C30204662
:1067D00003F0F8F80028E0D007F113012046FFF796
:1067E000C3FD83460028D8D0E369A662197801F07A
:1067F000F002302A7FD1D4F830A0BAF1000FCCD00B
:1068000097F813C06A4608EE102A03EB0C02517881
:10681000957805EB0125ADB205F108026946D2086D
:10682000A1EBC20295460CF10302FA6003EB020EE3
:106830000DEB05026846C7F808D07A60D7E9012158
:106840008A4206D00A461EF8018B02F8018BBA6014
:10685000F4E70022425593F80080F96808F0060832
:10686000ABEB0C02033AB8F1020FA2EB050229448C
:1068700025D113F801E01944023A91F801B00CF166
:106880000501294419440BEB0E2BD047E369402244
:106890001A70E3691FFA8BFB83F80180E3694FEA02
:1068A0001B229A70E36983F803B0E1690422204651
:1068B00002F081FE666218EE103A9D466DE7B8F16F
:1068C000040F15D113F801E01944023A91F801B010
:1068D0000CF10501294419440BEB0E2BD047E36959
:1068E00050221A70E36902221FFA8BFB5A70D5E717
:1068F0001944D047DFE7502A08D19A78D97801EBBC
:10690000022189B22046FFF7D9FE46E7402A12D17C
:10691000626B002A3FF441AFBBF1040F7FF43DAF3F
:1069200011F0060F7FF439AF9978D87800EB012089
:1069300080B2904731E7602A08D19A78D97801EB84
:10694000022189B22046FFF7DDFE26E7702ADFD05C
:10695000902A3FF422AFC02A0AD1D0221A70E369EC
:1069600000225A70E1690222204602F024FE14E758
:10697000D02A04BF002384F82C300EE7F7B5044674
:106980000F461646FFF79AFD054610B3214601A8AB
:10699000FFF774FC238C01339BB2EBB12384238C6F
:1069A000E2691B0A5371E369228C9A71E269072339
:1069B00039462046FFF766FDE3691E54043883B26A
:1069C000E26982212046FFF721FD054601A8FFF775
:1069D00060FC284603B0F0BD0123DFE70022FFF78B
:1069E000CDBF000008B5024B1B689B68019308BD32
:1069F0006802030008B5024B1B68DB68019308BD01
:106A00006802030008B5024B1B689B68019308BD30
:106A10002C02030008B5024B1B68DB68019308BD1C
:106A20002C02030008B5024B1B681B69019308BDCB
:106A30002C02030008B5024B1B685B69019308BD7B
:106A40002C02030008B5024B1B685B69019308BD6B
:106A50006C02030008B5024B1B685B68019308BD1C
:106A60001802030008B5024B1B68DB68019308BDE0
:106A70001802030008B5024B1B685B69019308BD4F
:106A80001802030008B5024B1B689B68019308BD00
:106A90007802030008B5024B1B681B6D019308BD0B
:106AA0007802030008B5024B1B689B6D019308BD7B
:106AB0007802030008B5024B1B681B6E019308BDEA
:106AC0007802030008B5034B1B68D3F89830019394
:106AD00008BD00007802030008B5034B1B68D3F81B
:106AE000F030019308BD00007802030008B5024BA6
:106AF0001B681B6B019308BD4802030008B5024BDD
:106B00001B685B6B019308BD4802030008B5024B8C
:106B10001B689B6B019308BD4802030008B5024B3C
:106B20001B681B6C019308BD4802030008B5024BAB
:106B30001B685B6C019308BD4802030008B5024B5B
:106B40001B689B6C019308BD4802030008B5024B0B
:106B50001B68DB6C019308BD4802030008B5024BBB
:106B60001B685B6D019308BD4802030008B5024B2A
:106B70001B685B69019308BD6402030008B5024B02
:106B80001B681B6A019308BD6402030008B5024B31
:106B90001B689B6A019308BD6402030008B5024BA1
:106BA0001B689B68019308BD3C02030008B5024BBB
:106BB0001B68DB68019308BD3C02030008B5024B6B
:106BC0001B681B69019308BD3C02030008B5024B1A
:106BD0001B685B69019308BD3C02030008B5024BCA
:106BE0001B689B69019308BD3C02030008B5024B7A
:106BF0001B68DB69019308BD3C02030008B5024B2A
:106C00001B681B6A019308BD3C02030008B5024BD8
:106C10001B689B6A019308BD3C02030008B5024B48
:106C20001B68DB6A019308BD3C02030008B5024BF8
:106C30001B681B6C019308BD3C02030008B5024BA6
:106C40001B681B68019308BD2802030008B5024BAE
:106C50001B68DB68019308BD2802030008B5024BDE
:106C60001B689B69019308BD2802030008B5024B0D
:106C70001B68DB69019308BD2802030008B5024BBD
:106C80001B681B6A019308BD2802030008B5024B6C
:106C90001B685B6A019308BD2802030008B5024B1C
:106CA0001B689B6A019308BD2802030008B5024BCC
:106CB0001B68DB6A019308BD2802030008B5024B7C
:106CC0001B681B6B019308BD2802030008B5024B2B
:106CD0001B685B6B019308BD2802030008B5024BDB
:106CE0001B681B6C019308BD2802030008B5024B0A
:106CF0001B689B69019308BD3802030008B5024B6D
:106D00001B68DB69019308BD3802030008B5024B1C
:106D10001B681B6A019308BD3802030008B5024BCB
:106D20001B689B6A019308BD3802030008B5024B3B
:106D30001B681B6B019308BD3802030008B5024BAA
:106D40001B689B6B019308BD3802030008B5024B1A
:106D50001B681B68019308BD3002030008B5024B95
:106D60001B685B69019308BD3002030008B5024B44
:106D70001B68DB69019308BD3002030008B5024BB4
:106D80001B681B6A019308BD3002030008B5024B63
:106D90001B685B6A019308BD3002030008B5024B13
:106DA0001B68DB6B019308BD3002030008B5024B82
:106DB0001B681B6C019308BD3002030008B5024B31
:106DC0001B685B6C019308BD3002030008B5024BE1
:106DD0001B681B68019308BD4C02030008B5024BF9
:106DE0001B685B68019308BD4C02030008B5024BA9
:106DF0001B689B68019308BD4C02030008B5024B59
:106E00001B681B69019308BD4C02030008B5024BC7
:106E10001B685B69019308BD4C02030008B5024B77
:106E20001B689B69019308BD4C02030008B5024B27
:106E30001B68DB69019308BD4C02030008B5024BD7
:106E40001B681B6A019308BD4C02030008B5024B86
:106E50001B685B6B019308BD6002030008B5024B21
:106E60001B681B6D019308BD6002030008B5024B4F
:106E70001B685B6D019308BD6002030008B5024BFF
:106E80001B68DB6E019308BD6002030008B5024B6E
:106E90001B681B6F019308BD6002030008B5024B1D
:106EA0001B685B68019308BD2002030008B5024B14
:106EB0001B685B69019308BD2002030008B5024B03
:106EC0001B68DB6A019308BD2002030008B5034B71
:106ED0001B68D3F88830019308BD0000200203002E
:106EE00008B5034B1B68D3F89430019308BD00002C
:106EF0002002030008B5024B1B685B68019308BDC4
:106F00004002030008B5024B1B689B68019308BD53
:106F10004002030008B5024B1B68DB68019308BD03
:106F20004002030008B5024B1B681B69019308BDB2
:106F30004002030008B5024B1B685B69019308BD62
:106F40004002030008B5024B1B689B69019308BD12
:106F50004002030008B5024B1B68DB69019308BDC2
:106F60004002030008B5024B1B681B6A019308BD71
:106F70004002030008B5024B1B681B6B019308BD60
:106F80004002030008B5024B1B685B6B019308BD10
:106F90004002030008B5024B1B681B6C019308BD3F
:106FA0004002030008B5024B1B685B6C019308BDEF
:106FB0004002030008B5024B1B68DB69019308BD62
:106FC0004402030008B5024B1B68DB6B019308BD4C
:106FD0004402030008B5024B1B681B68019308BDFF
:106FE0001C02030008B5024B1B685B68019308BDD7
:106FF0001C02030008B5024B1B689B68019308BD87
:107000001C02030008B5024B1B685B6A019308BDB4
:107010001C02030008B5024B1B68DB6A019308BD24
:107020001C02030008B5024B1B681B6B019308BDD3
:107030001C02030008B5024B1B68DB6B019308BD03
:107040001C02030008B5024B1B681B6C019308BDB2
:107050001C02030008B5024B1B685B6C019308BD62
:107060001C020300002240681146FFF77BBF00228C
:1070700040681146FFF786BF40680022FFF77ABFDD
:107080004068002281F00101FFF764BF00234068DF
:107090001A461946FFF756BF002340681A4619469C
:1070A000FFF748BF002240681146FFF73BBF0022B0
:1070B00040681146FFF726BF406800220221FFF713
:1070C00029BF002340681A46FFF714BF024B032272
:1070D0005A60024A1A60704788E60320E0D10B002C
:1070E0000021FFF76BBE0021FFF760BE10B504461C
:1070F00008462170FFF73AFE00236360204610BD6A
:1071000013B504460078FFF7EEFF58B920780190D8
:107110004FF6FF71FFF71AFE019802B0BDE810406C
:10712000FFF7DEBF02B010BD0078FFF7D9BF000047
:10713000400830B51860002418688842E5B206D9C6
:107140000134082C02D040081860F5E70725024BEF
:107150005B5D137030BD00BF14D20B002DE9F0430E
:1071600006468FB000780C46FFF7BDFF00281BDBFA
:1071700035781422002109A803F002FA0B2300221B
:1071800009A92846ADF82430FFF700FE9DF82D3000
:1071900013B19DF82C5055B10027B946B8460125CA
:1071A00023795DB1C3B100200FB0BDE8F083DDF8F5
:1071B00030809DF834909DF83570F1E7002B35D183
:1071C000A368434508D18DF820908DF82170BDF853
:1071D0002020A3899A42E6D00023A1688DF80F30C1
:1071E0000A9804AB0DF10F02FFF7A2FF217985B9D0
:1071F00089B9A36843450ED38DF820908DF821708E
:10720000BDF82020A3899A4205D1049B434502D1B1
:10721000C9E70029F9D100230193637B00939DF80E
:107220000F20237B3078FFF7B9FDBCE7CDE900558F
:107230002B462A460121F5E708B50078FFF78EFDB9
:10724000C0B208BD054B02221A60054B054A9A6080
:107250000020C3E90000FFF721BE00BF9CE6032029
:1072600090E603200000FFFF10B504460068FFF71A
:10727000B9FE204610BD10B50446006808B1FFF7FE
:10728000B1FE0023C4E90133236010BD38B50446C4
:107290000D4600680131FFF7ADFE10B1C4E90005ED
:1072A000012038BD10B50368044623B143688B4202
:1072B00001D3012010BD2046FFF7E8FF0028F9D0D8
:1072C000A368002BF5D122681370F2E737B50D469D
:1072D000114601920446FFF7E5FF019A28B92046BE
:1072E000FFF7C9FF204603B030BDA26029462068E1
:1072F00003F01EF92268A3680021D154F2E70023AD
:1073000013B5C0E9003304468360037341B10846F6
:107310000191FDF773FB019902462046FFF7D6FF66
:10732000204602B010BD38B5054600680C4668B16D
:107330006A688B689A4207D3096803F06EF9A368FC
:10734000AB600023A36038BDFFF74CFE23682B60C1
:1073500063686B60A368AB600023C4E90033F1E7A6
:1073600010B50023C0E90033044683600373FFF7C0
:10737000DAFF204610BD884210B5044605D00B68E0
:107380002BB18A681946FFF7A1FF204610BDFFF711
:1073900072FFFAE710B500230446C0E900338360AA
:1073A0000373FFF7E8FF204610BD13B5044659B13B
:1073B00008460191FDF722FB019902462046FFF79E
:1073C00085FF204602B010BDFFF755FFF9E70268C0
:1073D0000B46096862B141B9806860B110787047A6
:1073E000986840B10978484270471046FDF7FCBAEA
:1073F0000029F5D10846704708B5006840B103F090
:107400007BF851EC100BFDF781FA00EE100A08BD75
:107410009FED010AFBE700BF00000000704700007D
:10742000064B994210B500F10C0405D0084602F055
:107430004BFF002808BF0024204610BDF8D20B00E7
:1074400010B530210446FDF73AFB204610BD30212F
:10745000FDF735BBF0B50025EC1C8C420DD86E1C39
:10746000445D875D974205D12644B14205D31D6036
:10747000601CF0BD01342544EEE70020F9E7034627
:1074800008461B68D3E900211047012A38B5044695
:1074900002D10B68236003E0022A03D0032A0DD037
:1074A000002038BD08200D68FDF703FB03460028C7
:1074B000F0D095E8030083E80300EBE700680028BC
:1074C000EED00821FDF7FBFAEAE710B58368044621
:1074D00013B1032201469847204610BD10B54368FA
:1074E000013B0446436063B903689B689847A368FF
:1074F000013BA3602BB923682046DB68BDE8104040
:10750000184710BDA0F13003DAB2092A01D8184695
:107510007047A0F16103052B01D857387047A0F1DF
:107520004103052B94BF37384FF0FF307047000000
:1075300010B500230370044B04461868FFF706FBE0
:1075400001232370204610BDA4E6032010B5037864
:1075500004461BB1024B1868FFF700FB204610BD24
:10756000A4E6032082B00346086849686A4603C25D
:107570006A4603CA18601846596002B0704708B5D9
:1075800082798B799A4206D1062202F0C1FFB0FAC5
:1075900080F0400908BD0020FCE74FF0FF33036096
:1075A00083800020704708B50246002101604160D9
:1075B000FFF7F3FF9171104608BD000010B50123DD
:1075C0000361054B024603F1100153F8044B42F8E6
:1075D000044B8B42F9D110BDC2C50B000069704746
:1075E000808970477047000001232DE9F341036152
:1075F000344B0C460646024603F1100153F8040BC7
:1076000042F8040B8B42F9D144B32421204603F005
:1076100020F804284FF0000523D1ADF8045001AF45
:10762000A51C063415F8020CFFF76CFFB0F100083A
:1076300012DB15F8010CFFF765FF00280CDB0235A3
:1076400040EA0810A54207F8010BEBD19DF8053080
:1076500033739DF8043073730023336102B0BDE8C7
:10766000F0814FF010082421204602F0F2FFA842DA
:1076700007D842460021304602B0BDE8F04102F092
:107680007FBFB8F1000FE9D0605DFFF73BFF030655
:1076900015D4000108F1FF38C7B206F8087024219C
:1076A000204602F0D6FF0135A84208D9605DFFF7F9
:1076B00029FF40B20028A4BF384306F8080001356E
:1076C000D1E700BFC2C50B0013B504460191FFF717
:1076D00075FF20460199FFF787FF204602B010BDD5
:1076E00010B5D0E9063203EBC2029342184606D029
:1076F000046824888C4203F10803F6D110BD0020F1
:10770000FCE7000070B50025056006463020FDF757
:10771000D0F9044688B10123C0E90133094B036065
:107720004FF6FF7383810E30FFF73DFFC4E9065526
:10773000C4E90855C4E90A55A57574600C34346071
:10774000304670BDE4D20B0037B50D46044601A8A3
:10775000FFF7EEFE2A68D2F802302360D2F8063036
:10776000636001A8FFF7F2FE204603B030BD30B5DC
:10777000054687B00C4601A8FFF7DAFE2A682368A1
:1077800012881B889A420DD1294602A8FFF7DCFF18
:10779000214604A8FFF7D8FF04A902A8FFF7EFFECF
:1077A000044600B9002401A8FFF7D0FE204607B028
:1077B00030BD000010B504466420FDF77AF968B1C9
:1077C0000023C0E90033C0E90233C0E90433C0E953
:1077D00006330362C362C363C364C365206020B918
:1077E0000A4A0B490A20FFF731FB0020FFF74AF94C
:1077F00020B1064A07490A20FFF728FB21680648FE
:107800000022FFF769F9204610BD00BF656A0B0032
:107810001CD20B005AD20B00057D0B0010B50A4C90
:107820002378BFF35B8FDB070CD42046FDF756F9B6
:1078300040B10648FFF7BEFF2046FDF754F9044863
:1078400002F054FE014810BDA0E60320A8E6032084
:10785000F5790B0008B50020FFF714F900EAE07095
:1078600008BD19B90A460846FFF714B9D1E9000165
:107870000022F9E770B5D0E90053044605EB031682
:10788000AE4204D02846FFF7EFFC1035F8E7206839
:10789000FFF7A8FB204670BD38B5141E43680546A7
:1078A00002DB62189A4200DD5C1A2A68501801193E
:1078B0001A44521A02F04AFE6A68121B6A6038BD06
:1078C00037B50A4604460D4601ABD0E90001FFF783
:1078D000C1FD024638B101992046FFF7DDFF294678
:1078E0002046FFF7EDFF03B030BD10B50C4629B9B7
:1078F0000A460846BDE81040FFF7D4B801212046EB
:10790000FFF7DEFFD4E900010022F3E738B50446B3
:107910001546FFF7A6FF00280ADB29462046FFF799
:10792000E4FF002804DBBDE838400020FFF7C2B8C0
:1079300038BD000038B500230446836008200D469A
:10794000FDF7B7F818B12B6803606B684360034B11
:10795000E360034B2060A360204638BD7F740B00BA
:107960008B740B000B68036013B15A6801325A60C4
:10797000704710B551F8043B044640F8043BFFF74C
:10798000F1FF204610BD10B50446006808B1FFF7AE
:10799000A5FD204610BD70B5D0E90053044605EBA7
:1079A000C306AE4204D0281DFFF7EDFF0835F8E707
:1079B0002068FFF717FB204670BD70B5D0E9005373
:1079C000044605EBC306AE4204D0281DFFF7DBFFDB
:1079D0000835F8E72068FFF705FB204670BD10B5B5
:1079E00004462430FFF7E9FF04F11800FFF7D3FF46
:1079F00010BD000070B5174B1C6854B304F154005F
:107A0000FFF763FD04F14400FFF75FFD04F134006C
:107A1000FFF75BFD04F12400FFF757FDD4E906539F
:107A200005EBC306AE4204D0281DFFF7ACFF0835B6
:107A3000F8E7A069FFF7D6FA04F10C00FFF7BDFFE5
:107A40002046FFF7A8FF20466421BDE87040FDF7FF
:107A500036B870BDA8E60320826810B50AB902F0F6
:107A60002FFCBDE81040C368184738B50D1E04460A
:107A7000006803DDFFF7BEFA18B938BDFFF7B2FAA8
:107A800000202060A5600120F7E708B583688B42DD
:107A900002DAFFF7EAFF08BD0120FCE72DE9F0411B
:107AA0000F4641681D461944836899420446904632
:107AB00012DC266862683E44D21B3146701902F01F
:107AC00045FD2A464146304602F032FD63682B44AC
:107AD00063600120BDE8F081FFF7C7FF0028E8D10F
:107AE000F8E7F8B50D46D0E9011399420446164669
:107AF0000BDA276862687919521B481C02F026FDD0
:107B00007E55636801336360F8BD0131FFF7ADFF57
:107B10000028EED1F8E70A464168FFF7E2BF2DE9F9
:107B2000F74304461D460F4601AB90460A46D0E98E
:107B300000019DF82890FFF78DFCAE1C636802469B
:107B4000B9F1000F26D128B333441B1AFF2B09D8F3
:107B500001992046FFF7A0FE616820463144FFF7F7
:107B600094FF18B9606803B0BDE8F0836A1C0199FE
:107B7000D2B22046FFF7B5FF01993A4601312046BF
:107B8000FFF7AFFF01992B46424602312046FFF72F
:107B900085FFE7E7F118FF29E4D82046FFF775FFD6
:107BA0000028DFD0691CC9B22046FFF7B4FF394670
:107BB0002046FFF7B0FF61682B464246E6E730B447
:107BC0009DF808501AB1029530BCFFF7A8BF406875
:107BD00030BC70471FB50023C0E900338360062224
:107BE000009301238DF80F2019460DF10F02044672
:107BF000FFF7E5FF204604B010BD8842F8B5044603
:107C00000D46164614D9904213D2A2F10806751AF1
:107C1000A1F108072C44B74218D01CB131462046C8
:107C2000FFF7A7FE301DFFF7AEFE083E083CF2E767
:107C30000CD0B5420AD01CB129462046FFF799FE68
:107C4000281DFFF7A0FE08350834F2E7F8BDF7B5A8
:107C5000044646686846FFF78CFED4E901739F42EC
:107C600012DB0137002F29DDF800FFF7B3F90546D5
:107C7000F0B1D4E9001201EBC202FFF7BEFF2068A9
:107C8000FFF7B0F92560A7602368626803EBC606BA
:107C900003EBC202314606F10800FFF7AEFF1EB14A
:107CA00069463046FFF765FE63680133636001256E
:107CB00001A8FFF768FE284603B0F0BD0025DEE707
:107CC000F8B5D0E9004305460F4604EBC306A642CB
:107CD00005D039462046FFF74AFD08B114B9F8BD72
:107CE0000834F4E7201DFFF74EFED5E9003204F119
:107CF000080103EBC2022046FFF77FFF6B68013BE0
:107D00006B60ECE72DE9F04105468EB003A80C4608
:107D1000FFF70EFC2E68F31E0D2B3CD8DFE813F0A6
:107D20000E0057003B00D3003B003B003B003B00F4
:107D30003B009D009D009D009D009D0004A8FFF755
:107D4000E1FC049BAA891A80696804980831023012
:107D5000FFF708FC04A906A8FFF70BFE06A904F12B
:107D60001800FFF774FF054607A8FFF70CFEC5B91A
:107D70002023CDE906355E4B5E49009306AA2B46CB
:107D80000120FFF76BF8049B29461888FEF79AFE3E
:107D900005A8FFF7F8FD03A8FFF7D8FB0EB0BDE874
:107DA000F081E36A23B104A904F12400FFF754FE33
:107DB00005A8FFF7E8FD20210023CDE906134E4A70
:107DC00000924C4906AA0120FFF748F8E3E7A98989
:107DD0002046FFF785FC06460028DCD00568D5E97B
:107DE00006324FF6FF71298003EBC2029A4203D09C
:107DF00053F8080B4180F9E7D5E9037307EBC30893
:107E0000B84504D0381DFFF7BEFD0837F8E700235A
:107E10002B61D5E9067307EBC308B84504D0381DBC
:107E2000FFF7B1FD0837F8E70023EB61AB72E36BB6
:107E300023B1314604F13400FFF70EFE33684FF6EC
:107E4000FF721A80314604F11800FFF739FF202233
:107E50000023CDE90623294AB2E7A9892046FFF786
:107E60003FFC002897D0E36C002B94D000230D2E0C
:107E7000ADF8163001D0102E17D1002369681A46CC
:107E800006258DF8153004918DF814200690DDE953
:107E9000040109AB8DF81C60089583E80300236D8D
:107EA00006A904F14400984775E70F2E01BF2B7A0D
:107EB000696803F0010208250FBFC3F340031A46A7
:107EC00019461D46DDE7A9892046FFF709FC014652
:107ED00000283FF460AFE36D002B3FF45CAF6B68AC
:107EE000069306AA236E04F15400984753E700BF97
:107EF0009CD20B0033D20B00C2D20B00CCD20B00B1
:107F000013B50B460246D0E900016C4684E8030035
:107F100093E8030082E8030094E8030083E8030089
:107F200002B010BD38B505460C46FFF7E9FFAB6857
:107F3000A268AA60A360EB68E268EA60E36038BD0B
:107F400010B504688AB03434B9B1CDE9001202A882
:107F50006946FFF7EFFC002306A902A80893FFF784
:107F6000E1FF214606A8FFF7DDFF06A8FFF7ADFAFF
:107F700002A8FFF7AAFA0AB010BD0491EBE710B50A
:107F800004688AB02434B9B1CDE9001202A8694668
:107F9000FFF7D0FC002306A902A80893FFF7C2FF51
:107FA000214606A8FFF7BEFF06A8FFF78EFA02A833
:107FB000FFF78BFA0AB010BD0491EBE702480023EB
:107FC0000360FEF7B3BD00BFA4E60320F8B5064684
:107FD0000D468F180024BD420CD0336815F8011BE4
:107FE0009B6830469847031E01DB1C44F3E7002CD6
:107FF00008BF1C462046F8BD13B50446084659B1D3
:108000000191FCF7FBFC23680199DB6802462046DE
:1080100002B0BDE81040184702B010BD08B5FFF728
:10802000EBFF08BD03689B68184738B50D2105466E
:10803000FFF7F8FF0A2104462846FFF7F3FF204424
:1080400038BD38B50546FFF7D7FF04462846FFF789
:10805000ECFF204438BD30B58BB00023012A8DF8E9
:10806000243098BF0A2209AC0D46B1FBF2F101FBA6
:10807000125303F0FF03092B94BF30333733DBB2C5
:10808000AA4204F8013DEFD92146FFF7B5FF0BB036
:1080900030BD2DE9F04186B000AF05460E46381DD3
:1080A000142114463B60FEF7ADFF13280ED8391D8E
:1080B0002846FFF7A1FF04461EB12846FFF7B5FF8B
:1080C000044420461837BD46BDE8F08100F108039E
:1080D00023F00703E846ADEB030D2246411C3B6845
:1080E0006846FEF78FFF69462846FFF785FF04467E
:1080F000C546E1E780680368DB68184770470846B3
:1081000011B10B685B68184770477047704770473C
:10811000704738B504460D4600682E2102F073FA08
:108120002368C31A2B6023B1037803B1013023689D
:108130002060184638BD10B50C210446FCF7BFFC82
:10814000204610BD10B504210446FCF7B8FC2046BB
:1081500010BD10B504210446FCF7B1FC204610BD4B
:10816000FEF7F4BC08B5FCF73FFCB0FA80F040091C
:1081700008BD704710B50C4601F02CF9844210D0B0
:1081800002F036F8844205D102F032F8BDE8104022
:1081900001F09FB92CB1236820465B68BDE8104010
:1081A000184710BD0B6803604B68436013B15A68F1
:1081B00001325A60704713B5044608460191FCF736
:1081C0001DFC01990246204602B0BDE8104001F0B6
:1081D00069BF13B5044608460191FCF70FFC2368FC
:1081E0000199DB680246204602B0BDE810401847FE
:1081F00007B503688DF80710DB6801220DF1070150
:10820000984703B05DF804FB0A6802604A68426060
:108210000022C0E9022210B502618C688460CC683B
:10822000C4600C698A60CA6004610A6110BD000004
:108230002DE9F74FD0E900844FF0140A00930AFBB0
:1082400004F4184BA41017465C434546002C21DD6E
:1082500066100AFB06F005EB00093A46B9F804B0CF
:10826000285801915F4528BF5A4602F0DEF90028E0
:1082700001994FF001030BD15F4503D1009A1370B0
:108280003446E3E7FCD9A61B09F11405013EF7E7E4
:10829000F9DBF5E7A5EB08050248AD10684303B02C
:1082A000BDE8F08FCDCCCCCC7FB50369057E0191C4
:1082B00003B3F9B1002600F10C04039603A901A849
:1082C000FFF727FF0146A8B10DF10B03039A8DF8C4
:1082D0000B602046FFF7ACFF9DF80B3053B12368CD
:1082E000142404FB0034083434F9023C002BA8BFEA
:1082F000DDB2E3E7284604B070BD0EB4F0B58CB033
:1083000000AF07F14405044655F8042B7A602B466C
:10831000202107F11000FD60FEF774FE1F287A6827
:108320001AD900F1080323F007036E46ADEB030DE5
:10833000411C2B466846FD60FEF764FE021E04DD0C
:1083400023686946DB6820469847B5463037BD4606
:10835000BDE8F04003B070470028F7D0236802461C
:10836000DB6807F1100120469847EFE710B5094C8C
:108370002378BFF35B8FDB0709D42046FCF7AEFB05
:1083800028B12046FCF7AFFB034802F0AFF80348E2
:1083900010BD00BFB0E603200B810B0070E303208B
:1083A00010B5094C2378BFF35B8FDB0709D4204657
:1083B000FCF794FB28B12046FCF795FB034802F03C
:1083C00095F8034810BD00BFB4E6032073810B008D
:1083D00074E3032038B500250446C0E90055C0E920
:1083E00004558560856140F8245FFEF79FFBFFF729
:1083F000BDFFE061FFF7D4FF25732062204638BD42
:1084000010B50A4C2378BFF35B8FDB070CD42046F2
:10841000FCF764FB40B10648FFF7DCFF2046FCF7A1
:1084200062FB044802F062F8014810BDACE603208C
:10843000BCE6032055890B00024A03490348002388
:10844000FEF724BD39870B00C5860B0045860B005F
:1084500000231A4619461846FEF718BD37B58D6831
:1084600004466846FFF79EFE6A462946204601F00C
:1084700039FD01A8FFF787FA204603B030BD37B5B4
:10848000CD6804466846FFF78DFE6A4629462046B9
:1084900001F004FD01A8FFF776FA204603B030BDD5
:1084A00037B50D6904466846FFF77CFE6A462946E3
:1084B000204601F09CFC01A8FFF765FA204603B0B6
:1084C00030BD000070B58AB00D46014604A8FFF724
:1084D000C5FF144E04A801F01DFDE8B104A96846CB
:1084E000FFF7CDFF02983146FFF73CFE044610B17E
:1084F0002C1E18BF012401A8FFF745FA002CE9D073
:1085000004A96846FFF7CCFF684601F0A6FC286086
:1085100001A8FFF738FADDE705A8FFF734FA0AB03B
:1085200070BD00BF00D30B0037B50C462046134981
:108530001546FCF759FA50B900F04CFF4FF41651AC
:1085400000F038FF03B0BDE8304000F043BF0C49F5
:108550002046FCF749FA78B94FF4165301A928468A
:108560000193FFF7AFFF01F043FE019900F0AEFF6A
:1085700001F03EFE03B030BD0020FBE705D30B0049
:108580000CD30B0070B5D0E900531426044606FB4B
:108590000356AE4205D005F10800FFF7F3FF14358E
:1085A000F7E72068FEF71EFD204670BD10B50446B3
:1085B0000C30FFF7E7FF2046FFF75CF9204610BDBF
:1085C00010B5044B044640F8043BFFF7EFFF20468C
:1085D00010BD00BF7CC60B0010B50446FFF7F0FFCE
:1085E00020462421FCF76BFA204610BD10B5034B42
:1085F00003600446FFF7E4FF204610BDA8D30B003C
:1086000010B50446FFF7F2FF20462421FCF757FA85
:10861000204610BD0022C0E9002210B582600C681F
:1086200004604C6844608C680A604A6084608A60B8
:1086300010BD10B5036804461868FEF78FFA20468F
:1086400010BD00002DE9F04F87B0804603931C4B0E
:108650005B68C3F30803894616466BB9FFF7D0FE83
:10866000044600F12403406A0593FFF779FD237B5C
:108670002BB105A8FFF7DDFF07B0BDE8F08F0123A0
:108680002373D4E900535FFA89F905EB830AAA45FD
:1086900012D055F8047B3146381DFFF705FE8145A1
:1086A000F5D33B68039A0092D3F808B04A463346A4
:1086B00041463846D847EAE700232373D9E700BF8D
:1086C00000ED00E02DE9F74F9B461A4B5B68C3F3C2
:1086D00008038046894616466BB9FFF791FE0446AB
:1086E00000F12403406A0193FFF73AFD237B2BB18D
:1086F00001A8FFF79EFF03B0BDE8F08F01232373AD
:10870000D4E90053F6B205EB830A55450ED055F86F
:10871000047B5946381DFFF7C7FD8642F5D33B68F9
:108720004A46DB68414638469847EEE70023237304
:10873000DEE700BF00ED00E02DE9F341164B5B687A
:10874000C3F3080305460F461BBBFFF759FE00F1B4
:1087500024030446406A0193FFF702FDD4E9006355
:10876000462406EB8308B04509D101A8FFF761FF55
:10877000A542B4BF0020012002B0BDE8F08156F848
:10878000040B39460430FFF78FFD8442A8BF04462E
:10879000E9E70020F0E700BF00ED00E0F8B5D0E920
:1087A00001539D4204460E460DDB6F1C002F0068EE
:1087B00004DDB900FEF71EFC18B9F8BDFEF712FC87
:1087C00000202060A7602768626807EB850192009F
:1087D000A2EB8502081D01F0B9FE47F82560636829
:1087E000013363600120E8E737B500F12403044654
:1087F000406A01930D46FFF7B3FCD4E9003203EB66
:108800008202934219460BD00968A94203F104037E
:10881000F7D101A8FFF70DFF0025284603B030BDB2
:1088200029462046FFF7BAFF05460028F1D06368C5
:10883000012B01D1FFF700FE01A8FFF7FAFEECE7DC
:1088400070B50446D0E900020B4600EB820282427A
:108850000FD001461D6851F8046BAE4207D1521A81
:1088600001F074FE6368013B6360012070BD08463F
:10887000EDE70020FAE71FB500F124030446406A43
:1088800001910393FFF76CFC01A92046FFF7D8FF85
:1088900018B163680BB9FFF7DBFD03A8FFF7C9FE4A
:1088A00004B010BD70B5D0E904561823044603FB8C
:1088B0000656AE4215D005F110012046FFF7C0FF65
:1088C00063680BB9FFF7C4FDE06929690368DB68D9
:1088D0009847696919B1206A0368DB6898471835B9
:1088E000E7E7D4E90453182606FB0356AE4204D04A
:1088F0002846FEF7B9FC1835F8E70023636170BD20
:1089000073B50446FFF7A4FD04F12403606A0193E4
:10891000FFF726FC2046FFF7C5FF01A8FFF789FEF9
:10892000606A08B1FEF70AF9D4E90453182606FB79
:108930000356AE4204D02846FEF796FC1835F8E7F9
:108940002069FEF74FFB2068FEF74CFB204602B083
:1089500070BD00000148FFF7D3BF00BFBCE6032095
:108960008842F8B504460D46164615D9904214D2F1
:10897000A2F11406751AA1F114072C44B7421AD0BB
:108980001CB131462046FFF73FFC06F10800FFF717
:10899000F9FD143E143CF1E70DD0B5420BD01CB1EB
:1089A00029462046FFF730FC05F10800FFF7EAFDF5
:1089B00014351434F1E7F8BD8842F8B504460D4685
:1089C000164614D9904213D2A2F11006751AA1F1DD
:1089D00010072C44B74218D01CB131462046FEF790
:1089E000BFFC3046FEF740FC103E103CF2E70CD0D6
:1089F000B5420AD01CB129462046FEF7B1FC2846F4
:108A0000FEF732FC10351034F2E7F8BD70B50E1EDB
:108A1000054611DD3001FEF7DDFA044658B1D5E90F
:108A2000001201EB0212FFF7C7FF2868FEF7DAFA1F
:108A30002C60AE60012070BD0024F6E72DE9F04FF8
:108A4000904695B000230391D8F804100A9346226B
:108A50009942C0E90033C0E90233C0E90433CDE9EB
:108A600008330446027623DCD8E90057142303FBBD
:108A70000757AF423BD029460BA8FEF771FC0BA964
:108A80000FA8099EFEF76CFCDDE9091399421BDA79
:108A9000089B099A03EB061603EB0212314606F116
:108AA0001000FFF789FFEEB9099B0133099311E02C
:108AB00008A8FFF7ABFF0028D6D108A8FEF7DAFE1A
:108AC000204615B0BDE8F08F013108A8FFF79EFFE2
:108AD0000028DDD10FA8FEF7C7FB0BA8FEF7C4FBEB
:108AE0001435C6E70FA93046FEF73AFCDCE700264E
:108AF000CDE90B660D964FF01409DDE908239E427F
:108B00007CDA3301D35806930BB90136F5E700231D
:108B1000079309FB06F302930BAD07A906A8FFF71D
:108B2000F8FA82460028F0D04FF000038DF8173095
:108B30000146079A0DF117032846FFF779FB9DF8C8
:108B400017700190002F4AD1BDF81C30ADF84030AD
:108B5000CDE911774FF6FF73CDF83CA0ADF8423068
:108B60001397D5E90132934217DB03F1010ABAF1F9
:108B7000000F30DD09FB0AF0FEF72CFA834660B3E4
:108B8000D5E9001209FB0212FFF7EAFE2868FEF79A
:108B900029FAC5F800B0C5F808A02B68019A09FBAE
:108BA000023A6A68514609FB02320AF11400FFF7E3
:108BB000D7FEBAF1000F03D00FA95046FFF724FBF0
:108BC0006B6801336B6011A8FFF7DCFC3FB10BA8A9
:108BD000FFF7D8FC71E7BB46D8E70127F3E7019B15
:108BE0002D6809FB0355069B1B782BB9D8F800307C
:108BF000029A13441B7CEB8008358EE721682260C3
:108C000062686360A36809920A9A0A93E368A260A3
:108C10000B9A0B932369E2600C9A0C9363692261AF
:108C20000D9A0D93039B089162612376CFE70000B4
:108C3000F0B5044687B00D462646194668461746E5
:108C4000FCF7F9F80B4B46F8043B694603A8FCF720
:108C5000F2F803AA39463046FFF7F0FE03A8FCF706
:108C6000A9F86846FCF7A6F8034B23602046256266
:108C700007B0F0BD7CC60B0090D30B00F0B50F46DB
:108C800085B01D490A9C384616461D46FBF7ACFECA
:108C9000C0B9A4B1294601A8FFF7BCFC174924209C
:108CA00001F00AFB054630B101AB32462146FFF721
:108CB000BFFF134B2B6001A8FCF77CF82C46204625
:108CC00005B0F0BD0F493846FBF78EFE90B9002C79
:108CD000F5D0294601A8FFF79DFC0849242001F0A2
:108CE000EBFA05460028E6D001AB32462146FFF7F5
:108CF0009FFFE0E70024E2E714D30B00A1D50B00AF
:108D0000A8D30B0018D30B00014B024A1A6070471E
:108D1000B8E6032029D30B002DE9F047089DD0F8D1
:108D2000209004460E461746984600F053FB8145B6
:108D30004CD02B79190704D56A6954492046FFF7AE
:108D4000DCFAB8F1000F0DD05B212046FFF750FA96
:108D500041462046FFF73DFA23684D49DB68022271
:108D6000204698472B79DA0723D5D5F808802F219C
:108D7000404601F07AFC08B100F101084146204666
:108D8000FFF727FA2B799B0708D53A212046FFF7F2
:108D90002FFAEA683F492046FFF7AFFA2A7923689D
:108DA00012F0040FDB6814BF3B493C490222204605
:108DB00098472B7958071DD529690B461A4613F891
:108DC000010B60B1202808D11946F7E7344800F0BC
:108DD00026FF0028ADD0BDE8F0872828EED1236813
:108DE000521ADB682046984723682E49DB68042224
:108DF0002046984700213846FEF740F801462046B5
:108E0000FFF7E7F923682549DB68022220469847E7
:108E10001EB131462046FFF7DCF92B7913F0300FF5
:108E20002CD023682049DB680222204698472B7902
:108E3000D9060AD523681D49DB68072220469847D2
:108E4000AA691B492046FFF758FA2B799A0611D5D3
:108E5000DB0605D523681049DB68022220469847C7
:108E600023681449DB6820460A229847E9692046AE
:108E7000FFF7AFF95D212046FFF7BAF923680E49E5
:108E8000DB6820460222BDE8F04718472DD30B00CF
:108E900034D30B00B4D40B0037D30B001DC60B002A
:108EA00020E703203AD30B003FD30B0042D30B0043
:108EB0004AD30B004DD30B0058D30B002DE9F041E2
:108EC0000446076A0D46164600F084FA874207D02A
:108ED000206A036832462946DB68BDE8F04118473E
:108EE000034800F09CFE0028F2D0BDE8F08100BFEE
:108EF00020E703202DE9F04385B0D0F820900C9CAA
:108F000005460F4690461E4600F064FA814505D19D
:108F1000494800F084FE002840F08A802B6A474AC6
:108F200001924FF0000901A803938DF8089001F019
:108F30001AF849464046FDF7A1FF41498046012203
:108F400001A801F09FF84146FFF735F93FB13D49CF
:108F5000012201A801F096F83946FFF72CF93EB13D
:108F60003949012201A801F08DF83146FFF723F9B4
:108F70002379DF070ED5A6682F21304601F075FB57
:108F800000B1461C3149012201A801F07BF83146AD
:108F9000FFF711F923799E0707D52D49022201A871
:108FA00001F070F8E16800F0EBFF2379580714D561
:108FB000266933461F4613F8012B2AB1202A01D116
:108FC0001E46F7E7282AF5D12249022201A801F01E
:108FD00059F8BA1B314601F065F82379190707D50E
:108FE0001D49012201A801F04DF8616900F0DAFF86
:108FF0002379DA0608D5042218490DEB020001F0A6
:1090000041F8A16900F0BCFF23799B0607D51449FC
:10901000062201A801F036F8E169FFF7CCF801A8B3
:1090200000F08BFF286A0F4903680222DB6898472B
:1090300005B0BDE8F08300BF20E7032078D30B0024
:109040000AD30B002DC60B00B0D90B002AD70B009A
:109050005BD30B005ED30B001AC60B0061D30B0071
:1090600066D30B0058D30B00024B1A68024B1A60F0
:10907000704700BF78E30320E4E603200021FDF7FA
:1090800015BF000010B5044B03600446806908B1A9
:10909000FEF724FA204610BDDCD40B0010B50446C0
:1090A000FFF7F0FF20461C21FBF709FD204610BD0D
:1090B000014B00229A607047E8E60320014B1860DC
:1090C000704700BF7CE3032008B50B4B43B100F0B1
:1090D00081F903681B699847002801DDAFF3008020
:1090E000064B43B101F084F803681B6998470028D8
:1090F00001DDAFF3008008BD0000000000000000AB
:1091000008B5FFF7E1FFFDF7B5FC014B186008BD9E
:1091100040E703200548064A064908B5121A01F03F
:1091200007FA054B054A1A6008BD00BF00F403208A
:1091300004F40320E8DC0B0000F403201E1C279A33
:1091400007B5002300931A466FF07701FDF7C8FEBC
:1091500003B05DF804FB000007B543880A2B08D074
:10916000502B0BD1094B1B684BB103B05DF804EBDE
:109170001847FFF7E5FF03B05DF804FB00230093F9
:109180001A466FF07701FDF7ABFEF4E7FCE603202B
:1091900010B512480021FDF75DFF114B1A68114B05
:1091A0009A42114B0CBF012200221A7001D0FFF726
:1091B000B1FFFDF74FFC044601F0EAF90B4B13B188
:1091C0002046AFF3008000210848FDF7FBFEBDE814
:1091D000104007480021FDF779BE00BFBD900B008D
:1091E00000F403201E1C279AF8E60320000000006C
:1091F00059910B00704710B518210446FBF75FFC2E
:10920000204610BDF0B5037D062B8DB00E4600F153
:1092100004074FF0000412D000F1080515F8011DF5
:109220000A223046FEF717FFAF42044419D0002C43
:10923000F4D02E213046FEF7F5FE0444EEE72F234E
:109240006A4639460A208DF80040FDF78FFC6846D3
:10925000FBF7D4FB33680246DB6869463046984723
:10926000044620460DB0F0BD10B5054B0446112252
:1092700040F8043B002101F083F9204610BD00BFF7
:109280000CD40B000346074A10B543F8042B01F138
:10929000100251F8044B43F8044B9142F9D10A787B
:1092A0001A7010BD0CD40B00037D042B04D1406850
:1092B000003818BF01207047062B07D143683BB91F
:1092C00083682BB9C3681BB90069F1E700207047B8
:1092D0000120704710B59DF8084044EA032343EA93
:1092E000024242EA016104234160037510BD00009F
:1092F00007B5064B0360CB7800938B784A780978E2
:10930000FFF7E8FF03B05DF804FB00BF0CD40B00CF
:10931000417470477047704708B50021007CFDF725
:109320007DFD40EAE07008BD08B50121007CFDF735
:1093300075FD40EAE07008BD08B5007CFDF766FDEC
:1093400020EAE07008BD08B5007CFDF757FD20EA73
:10935000E07008BD13B50446007C0191FDF756FD91
:109360000028019901DC607C20B1207CFDF75EFDC6
:1093700020EAE07002B010BD007CFDF75FBD10B5C3
:1093800014210446FBF79BFB204610BD10B54FF49B
:109390007A73044608460021C4E90113044B236094
:1093A0000123207463741146FDF710FD204610BDA3
:1093B00020D40B00007C0022FDF710BD007CFDF7DF
:1093C00015BD10B514220446002101F0D9F820463D
:1093D00010BD000010B50F4C88B003A8FFF7F1FFD7
:1093E0002178BFF35B8F11F001010FD1204601916D
:1093F000FBF774FB019948B103AA0748FFF7C6FFC2
:109400002046FBF770FB054801F070F8024808B0F1
:1094100010BD00BF00E7032004E7032015930B00F5
:1094200070474174704708B5007CFDF7EFFB20EAF8
:10943000E07008BD08B5007CFDF7C0FB20EAE070D5
:1094400008BD08B5007CFDF7C9FB40EAE07008BD27
:1094500008B5007CFDF7BAFB40EAE07008BD007C6F
:10946000FDF7C4BB37B5457C04462DB1207C03B065
:10947000BDE83040FDF79ABB007C0191FDF7C6FBCB
:1094800000280199F2DC284603B030BD10B5142144
:109490000446FBF714FB204610BD000010B54FF446
:1094A0007A730446084611460022C4E90123044B9E
:1094B0002360012320746374FDF7B8FB204610BDC0
:1094C00050D40B00007C0023FDF7A8BB0022FFF75F
:1094D000F9BF007CFDF762BB7047F8B5064615463C
:1094E0000C468F18BC4206D0336814F8011B9B68E9
:1094F00030469847F6E72846F8BD007C0022FDF785
:10950000BDBB007C0021FDF7C1BB007C0021FDF745
:10951000C5BB007C0021FDF7C9BB007C0021FDF725
:10952000CDBB10B514210446FBF7C9FA204610BD87
:1095300038B5044615464FF47A730022C4E9012376
:10954000094B2174084623602946FDF7C7FBBF304D
:1095500008D16B69DB0705D56868FDF743FDE8684E
:10956000FDF740FD204638BD80D40B00007C002272
:10957000FDF764BB0023007C1A461946FDF766BB65
:10958000007C0022FDF76ABBC9B2FFF7F9BF007C7F
:109590000022FDF76BBB0121FFF7F9BF13B503688C
:1095A0008DF80710DC6B01224FF0FF330DF107013E
:1095B000A04702B010BD10B40368DC6B4FF0FF335E
:1095C000A4465DF8044B604713B5134602688DF856
:1095D0000710D46B0DF107010122A04702B010BDA6
:1095E00010B54369B3F88620B3F884309A42044634
:1095F00008D06369B3F88420511CA3F88410134485
:10960000187910BD03681B6998470028F1D14FF005
:10961000FF30F6E7704743691868C043C00F7047D2
:1096200070470000064B994210B500F10C0405D0BC
:10963000084600F049FE002808BF0024204610BD5F
:10964000F8D20B0010B5AC210446FBF738FA2046DF
:1096500010BDAC21FBF733BA2DE9F0414FF0000803
:1096600086B01C46C0F8048005460E4617464146A3
:10967000102202A800F084FF631C09D04FF47A7313
:10968000B4FBF3F203FB1244CDE902285C430494DB
:10969000686910230093006802AB41F2050240F6AE
:1096A000FF71FDF723FB002807DAFDF7C3FC036811
:1096B0006B60002006B0BDE8F08168690023006897
:1096C0003A463146FDF732FB031EEEDB1846F1E762
:1096D00030B587B0044601AD6846FFF709FE0FCDEF
:1096E00004340FC42B68237007B030BD70B54D69CA
:1096F000054B04468C3544F8043B06460FCD0FC499
:109700002B682370304670BD0CD40B002DE9F0435C
:109710009846036893B00D460024DB6A0646174658
:10972000984728466B46224621460094FDF762F989
:109730000546002863D1009B002B4BD05B69002BB2
:1097400048D006A8FFF790FD009B5C696378022B68
:1097500004D1211D06A8FFF7BBFF26E00A2B24D168
:109760001122294601A800F00BFFA368002B38D076
:1097700004F108030DF1040C1834186859686246A6
:1097800003C20833A3429446F7D1062301A90CA8CB
:109790008DF81430FFF776FD0DF1340CBCE80F00A6
:1097A00007AC0FC4DCF80030237006A8FFF77CFD7F
:1097B00080B1336807ADD3F82090124B0C930FCDD6
:1097C0000DAC0FC42B6823703A4643460CA93046B3
:1097D000C84705460098FDF705F9284613B0BDE8CF
:1097E000F083E368002BC3D14FF6FF70D4F81090DC
:1097F000FDF7C4F98145BBD104F11401AAE7254660
:10980000E8E700BF0CD40B0038B543691A68002A9A
:10981000054610DAB3F88620B3F884309A420AD1AC
:1098200003681B699847044628B92B682846DB6AF9
:109830009847204638BD0120FCE710B54369B3F8CE
:109840008620B3F884309A42044605D06369B3F8A1
:1098500084201344187910BD03681B6998470028B9
:10986000F4D14FF0FF30F6E7F8B543691746B3F887
:109870008620B3F884309A4205460E4616D06969B0
:10988000B1F88430B1F88640E41ABC4228BF3C46A7
:10989000043322461944304600F04AFE6A69B2F8A1
:1098A00084302344A2F884302046F8BD03681B6945
:1098B00098470028E3D14FF0FF34F5E742690023D1
:1098C000A2F884304269A2F8863070472DE9F04151
:1098D0001F4603680C46DB6A8AB005461646984761
:1098E000237DD5F81480042B0CBF02200A20062209
:1098F0000121FDF723FAC8F800006B691B68002BF3
:1099000008DA2B682846DB6A0024984720460AB00C
:10991000BDE8F0812846FFF7D1FFB7B1002303A9C6
:10992000F8B20393ADF81030FDF78CF80028E8D1B9
:10993000686906230093006803AB41F20B0240F60E
:10994000FF71FDF7D3F90028DBD11C22002103A809
:1099500000F016FE237D042B1DD14FF40773304613
:10996000ADF80C30FDF712F9ADF80E006068FDF7A8
:1099700005F904906B691C22186803A9FDF7C6F964
:109980000028BED104340FCC6D698C350FC5236817
:109990002B700124BAE740F61C233046ADF80C309A
:1099A000FDF7F4F805AEADF80E00231D04F1140721
:1099B00018685968324603C20833BB421646F7D1CD
:1099C000D8E7000030B54269B2F886308BB0044663
:1099D0002BB1B2F884209A4201D1FFF76FFF616981
:1099E0000868002818DBB1F886507F2D14D80431A0
:1099F0000823C5F180022944FDF790F9002813DD02
:109A00006369B3F886200AB9A3F884206369B3F8C0
:109A100086201044A3F886006369B3F88600B3F883
:109A20008430C01A0BB030BDFDF704FB03680B2B6C
:109A3000F2D0FDF7FFFA03680B2BEDD020230025B1
:109A4000CDE90235FDF7F6FA03680193084B0949A1
:109A5000009302AA2B463220FDF700FA63691868CA
:109A6000FDF74CF963694FF0FF321A60D4E700BF8D
:109A7000A7D40B00A0D40B0010B5436904461868A6
:109A8000002801DBFDF73AF963694FF0FF321A60F5
:109A90006069112200218C3000F072FD2046BDE883
:109AA0001040FFF70BBF10B5002304460160C0F85B
:109AB00084308830FFF7D8FB204610BD73B50023F3
:109AC0004FF47A72C0E901320E4A036102604361C9
:109AD0000446AC200191FAF7ECFF051E05F10C06D7
